{
  "contractName": "TimelessNFT",
  "abi": [
    {
      "inputs": [
        {
          "internalType": "string",
          "name": "_name",
          "type": "string"
        },
        {
          "internalType": "string",
          "name": "_symbol",
          "type": "string"
        },
        {
          "internalType": "uint256",
          "name": "_royalityFee",
          "type": "uint256"
        },
        {
          "internalType": "address",
          "name": "_artist",
          "type": "address"
        }
      ],
      "stateMutability": "nonpayable",
      "type": "constructor"
    },
    {
      "anonymous": false,
      "inputs": [
        {
          "indexed": true,
          "internalType": "address",
          "name": "owner",
          "type": "address"
        },
        {
          "indexed": true,
          "internalType": "address",
          "name": "approved",
          "type": "address"
        },
        {
          "indexed": true,
          "internalType": "uint256",
          "name": "tokenId",
          "type": "uint256"
        }
      ],
      "name": "Approval",
      "type": "event"
    },
    {
      "anonymous": false,
      "inputs": [
        {
          "indexed": true,
          "internalType": "address",
          "name": "owner",
          "type": "address"
        },
        {
          "indexed": true,
          "internalType": "address",
          "name": "operator",
          "type": "address"
        },
        {
          "indexed": false,
          "internalType": "bool",
          "name": "approved",
          "type": "bool"
        }
      ],
      "name": "ApprovalForAll",
      "type": "event"
    },
    {
      "anonymous": false,
      "inputs": [
        {
          "indexed": true,
          "internalType": "address",
          "name": "previousOwner",
          "type": "address"
        },
        {
          "indexed": true,
          "internalType": "address",
          "name": "newOwner",
          "type": "address"
        }
      ],
      "name": "OwnershipTransferred",
      "type": "event"
    },
    {
      "anonymous": false,
      "inputs": [
        {
          "indexed": false,
          "internalType": "uint256",
          "name": "id",
          "type": "uint256"
        },
        {
          "indexed": true,
          "internalType": "address",
          "name": "from",
          "type": "address"
        },
        {
          "indexed": true,
          "internalType": "address",
          "name": "to",
          "type": "address"
        },
        {
          "indexed": false,
          "internalType": "uint256",
          "name": "cost",
          "type": "uint256"
        },
        {
          "indexed": false,
          "internalType": "string",
          "name": "metadataURI",
          "type": "string"
        },
        {
          "indexed": false,
          "internalType": "uint256",
          "name": "timestamp",
          "type": "uint256"
        }
      ],
      "name": "Sale",
      "type": "event"
    },
    {
      "anonymous": false,
      "inputs": [
        {
          "indexed": true,
          "internalType": "address",
          "name": "from",
          "type": "address"
        },
        {
          "indexed": true,
          "internalType": "address",
          "name": "to",
          "type": "address"
        },
        {
          "indexed": true,
          "internalType": "uint256",
          "name": "tokenId",
          "type": "uint256"
        }
      ],
      "name": "Transfer",
      "type": "event"
    },
    {
      "inputs": [
        {
          "internalType": "address",
          "name": "to",
          "type": "address"
        },
        {
          "internalType": "uint256",
          "name": "tokenId",
          "type": "uint256"
        }
      ],
      "name": "approve",
      "outputs": [],
      "stateMutability": "nonpayable",
      "type": "function"
    },
    {
      "inputs": [],
      "name": "artist",
      "outputs": [
        {
          "internalType": "address",
          "name": "",
          "type": "address"
        }
      ],
      "stateMutability": "view",
      "type": "function",
      "constant": true
    },
    {
      "inputs": [
        {
          "internalType": "address",
          "name": "owner",
          "type": "address"
        }
      ],
      "name": "balanceOf",
      "outputs": [
        {
          "internalType": "uint256",
          "name": "",
          "type": "uint256"
        }
      ],
      "stateMutability": "view",
      "type": "function",
      "constant": true
    },
    {
      "inputs": [],
      "name": "cost",
      "outputs": [
        {
          "internalType": "uint256",
          "name": "",
          "type": "uint256"
        }
      ],
      "stateMutability": "view",
      "type": "function",
      "constant": true
    },
    {
      "inputs": [
        {
          "internalType": "uint256",
          "name": "tokenId",
          "type": "uint256"
        }
      ],
      "name": "getApproved",
      "outputs": [
        {
          "internalType": "address",
          "name": "",
          "type": "address"
        }
      ],
      "stateMutability": "view",
      "type": "function",
      "constant": true
    },
    {
      "inputs": [
        {
          "internalType": "address",
          "name": "owner",
          "type": "address"
        },
        {
          "internalType": "address",
          "name": "operator",
          "type": "address"
        }
      ],
      "name": "isApprovedForAll",
      "outputs": [
        {
          "internalType": "bool",
          "name": "",
          "type": "bool"
        }
      ],
      "stateMutability": "view",
      "type": "function",
      "constant": true
    },
    {
      "inputs": [],
      "name": "maxSupply",
      "outputs": [
        {
          "internalType": "uint256",
          "name": "",
          "type": "uint256"
        }
      ],
      "stateMutability": "view",
      "type": "function",
      "constant": true
    },
    {
      "inputs": [],
      "name": "name",
      "outputs": [
        {
          "internalType": "string",
          "name": "",
          "type": "string"
        }
      ],
      "stateMutability": "view",
      "type": "function",
      "constant": true
    },
    {
      "inputs": [],
      "name": "owner",
      "outputs": [
        {
          "internalType": "address",
          "name": "",
          "type": "address"
        }
      ],
      "stateMutability": "view",
      "type": "function",
      "constant": true
    },
    {
      "inputs": [
        {
          "internalType": "uint256",
          "name": "tokenId",
          "type": "uint256"
        }
      ],
      "name": "ownerOf",
      "outputs": [
        {
          "internalType": "address",
          "name": "",
          "type": "address"
        }
      ],
      "stateMutability": "view",
      "type": "function",
      "constant": true
    },
    {
      "inputs": [],
      "name": "renounceOwnership",
      "outputs": [],
      "stateMutability": "nonpayable",
      "type": "function"
    },
    {
      "inputs": [],
      "name": "royalityFee",
      "outputs": [
        {
          "internalType": "uint256",
          "name": "",
          "type": "uint256"
        }
      ],
      "stateMutability": "view",
      "type": "function",
      "constant": true
    },
    {
      "inputs": [
        {
          "internalType": "address",
          "name": "from",
          "type": "address"
        },
        {
          "internalType": "address",
          "name": "to",
          "type": "address"
        },
        {
          "internalType": "uint256",
          "name": "tokenId",
          "type": "uint256"
        }
      ],
      "name": "safeTransferFrom",
      "outputs": [],
      "stateMutability": "payable",
      "type": "function",
      "payable": true
    },
    {
      "inputs": [
        {
          "internalType": "address",
          "name": "from",
          "type": "address"
        },
        {
          "internalType": "address",
          "name": "to",
          "type": "address"
        },
        {
          "internalType": "uint256",
          "name": "tokenId",
          "type": "uint256"
        },
        {
          "internalType": "bytes",
          "name": "_data",
          "type": "bytes"
        }
      ],
      "name": "safeTransferFrom",
      "outputs": [],
      "stateMutability": "payable",
      "type": "function",
      "payable": true
    },
    {
      "inputs": [
        {
          "internalType": "address",
          "name": "operator",
          "type": "address"
        },
        {
          "internalType": "bool",
          "name": "approved",
          "type": "bool"
        }
      ],
      "name": "setApprovalForAll",
      "outputs": [],
      "stateMutability": "nonpayable",
      "type": "function"
    },
    {
      "inputs": [],
      "name": "supply",
      "outputs": [
        {
          "internalType": "uint256",
          "name": "",
          "type": "uint256"
        }
      ],
      "stateMutability": "view",
      "type": "function",
      "constant": true
    },
    {
      "inputs": [
        {
          "internalType": "bytes4",
          "name": "interfaceId",
          "type": "bytes4"
        }
      ],
      "name": "supportsInterface",
      "outputs": [
        {
          "internalType": "bool",
          "name": "",
          "type": "bool"
        }
      ],
      "stateMutability": "view",
      "type": "function",
      "constant": true
    },
    {
      "inputs": [],
      "name": "symbol",
      "outputs": [
        {
          "internalType": "string",
          "name": "",
          "type": "string"
        }
      ],
      "stateMutability": "view",
      "type": "function",
      "constant": true
    },
    {
      "inputs": [
        {
          "internalType": "uint256",
          "name": "index",
          "type": "uint256"
        }
      ],
      "name": "tokenByIndex",
      "outputs": [
        {
          "internalType": "uint256",
          "name": "",
          "type": "uint256"
        }
      ],
      "stateMutability": "view",
      "type": "function",
      "constant": true
    },
    {
      "inputs": [
        {
          "internalType": "address",
          "name": "owner",
          "type": "address"
        },
        {
          "internalType": "uint256",
          "name": "index",
          "type": "uint256"
        }
      ],
      "name": "tokenOfOwnerByIndex",
      "outputs": [
        {
          "internalType": "uint256",
          "name": "",
          "type": "uint256"
        }
      ],
      "stateMutability": "view",
      "type": "function",
      "constant": true
    },
    {
      "inputs": [
        {
          "internalType": "uint256",
          "name": "tokenId",
          "type": "uint256"
        }
      ],
      "name": "tokenURI",
      "outputs": [
        {
          "internalType": "string",
          "name": "",
          "type": "string"
        }
      ],
      "stateMutability": "view",
      "type": "function",
      "constant": true
    },
    {
      "inputs": [],
      "name": "totalSupply",
      "outputs": [
        {
          "internalType": "uint256",
          "name": "",
          "type": "uint256"
        }
      ],
      "stateMutability": "view",
      "type": "function",
      "constant": true
    },
    {
      "inputs": [
        {
          "internalType": "address",
          "name": "newOwner",
          "type": "address"
        }
      ],
      "name": "transferOwnership",
      "outputs": [],
      "stateMutability": "nonpayable",
      "type": "function"
    },
    {
      "inputs": [
        {
          "internalType": "string",
          "name": "uri",
          "type": "string"
        }
      ],
      "name": "isNFTOwned",
      "outputs": [
        {
          "internalType": "bool",
          "name": "",
          "type": "bool"
        }
      ],
      "stateMutability": "view",
      "type": "function",
      "constant": true
    },
    {
      "inputs": [
        {
          "internalType": "string",
          "name": "title",
          "type": "string"
        },
        {
          "internalType": "string",
          "name": "description",
          "type": "string"
        },
        {
          "internalType": "string",
          "name": "metadataURI",
          "type": "string"
        }
      ],
      "name": "payToMint",
      "outputs": [],
      "stateMutability": "payable",
      "type": "function",
      "payable": true
    },
    {
      "inputs": [
        {
          "internalType": "address",
          "name": "from",
          "type": "address"
        },
        {
          "internalType": "address",
          "name": "to",
          "type": "address"
        },
        {
          "internalType": "uint256",
          "name": "tokenId",
          "type": "uint256"
        }
      ],
      "name": "transferFrom",
      "outputs": [],
      "stateMutability": "payable",
      "type": "function",
      "payable": true
    },
    {
      "inputs": [],
      "name": "getAllNFTs",
      "outputs": [
        {
          "components": [
            {
              "internalType": "uint256",
              "name": "id",
              "type": "uint256"
            },
            {
              "internalType": "address",
              "name": "from",
              "type": "address"
            },
            {
              "internalType": "address",
              "name": "to",
              "type": "address"
            },
            {
              "internalType": "uint256",
              "name": "cost",
              "type": "uint256"
            },
            {
              "internalType": "string",
              "name": "title",
              "type": "string"
            },
            {
              "internalType": "string",
              "name": "description",
              "type": "string"
            },
            {
              "internalType": "string",
              "name": "metadataURI",
              "type": "string"
            },
            {
              "internalType": "uint256",
              "name": "timestamp",
              "type": "uint256"
            }
          ],
          "internalType": "struct TimelessNFT.TransactionStruct[]",
          "name": "",
          "type": "tuple[]"
        }
      ],
      "stateMutability": "view",
      "type": "function",
      "constant": true
    },
    {
      "inputs": [],
      "name": "getAllTransactions",
      "outputs": [
        {
          "components": [
            {
              "internalType": "uint256",
              "name": "id",
              "type": "uint256"
            },
            {
              "internalType": "address",
              "name": "from",
              "type": "address"
            },
            {
              "internalType": "address",
              "name": "to",
              "type": "address"
            },
            {
              "internalType": "uint256",
              "name": "cost",
              "type": "uint256"
            },
            {
              "internalType": "string",
              "name": "title",
              "type": "string"
            },
            {
              "internalType": "string",
              "name": "description",
              "type": "string"
            },
            {
              "internalType": "string",
              "name": "metadataURI",
              "type": "string"
            },
            {
              "internalType": "uint256",
              "name": "timestamp",
              "type": "uint256"
            }
          ],
          "internalType": "struct TimelessNFT.TransactionStruct[]",
          "name": "",
          "type": "tuple[]"
        }
      ],
      "stateMutability": "view",
      "type": "function",
      "constant": true
    }
  ],
  "bytecode": "0x60806040526064600c55662386f26fc100006010553480156200002157600080fd5b50604051620052e0380380620052e08339818101604052810190620000479190620004cd565b8383816000908051906020019062000061929190620001e0565b5080600190805190602001906200007a929190620001e0565b5050506200009d620000916200010560201b60201c565b6200010d60201b60201c565b81600e8190555080600d60006101000a81548173ffffffffffffffffffffffffffffffffffffffff021916908373ffffffffffffffffffffffffffffffffffffffff160217905550620000f5620001d360201b60201c565b600f8190555050505050620005e2565b600033905090565b6000600a60009054906101000a900473ffffffffffffffffffffffffffffffffffffffff16905081600a60006101000a81548173ffffffffffffffffffffffffffffffffffffffff021916908373ffffffffffffffffffffffffffffffffffffffff1602179055508173ffffffffffffffffffffffffffffffffffffffff168173ffffffffffffffffffffffffffffffffffffffff167f8be0079c531659141344cd1fd0a4f28419497f9722a3daafe3b4186f6b6457e060405160405180910390a35050565b6000600880549050905090565b828054620001ee90620005ac565b90600052602060002090601f0160209004810192826200021257600085556200025e565b82601f106200022d57805160ff19168380011785556200025e565b828001600101855582156200025e579182015b828111156200025d57825182559160200191906001019062000240565b5b5090506200026d919062000271565b5090565b5b808211156200028c57600081600090555060010162000272565b5090565b6000604051905090565b600080fd5b600080fd5b600080fd5b600080fd5b6000601f19601f8301169050919050565b7f4e487b7100000000000000000000000000000000000000000000000000000000600052604160045260246000fd5b620002f982620002ae565b810181811067ffffffffffffffff821117156200031b576200031a620002bf565b5b80604052505050565b60006200033062000290565b90506200033e8282620002ee565b919050565b600067ffffffffffffffff821115620003615762000360620002bf565b5b6200036c82620002ae565b9050602081019050919050565b60005b83811015620003995780820151818401526020810190506200037c565b83811115620003a9576000848401525b50505050565b6000620003c6620003c08462000343565b62000324565b905082815260208101848484011115620003e557620003e4620002a9565b5b620003f284828562000379565b509392505050565b600082601f830112620004125762000411620002a4565b5b815162000424848260208601620003af565b91505092915050565b6000819050919050565b62000442816200042d565b81146200044e57600080fd5b50565b600081519050620004628162000437565b92915050565b600073ffffffffffffffffffffffffffffffffffffffff82169050919050565b6000620004958262000468565b9050919050565b620004a78162000488565b8114620004b357600080fd5b50565b600081519050620004c7816200049c565b92915050565b60008060008060808587031215620004ea57620004e96200029a565b5b600085015167ffffffffffffffff8111156200050b576200050a6200029f565b5b6200051987828801620003fa565b945050602085015167ffffffffffffffff8111156200053d576200053c6200029f565b5b6200054b87828801620003fa565b93505060406200055e8782880162000451565b92505060606200057187828801620004b6565b91505092959194509250565b7f4e487b7100000000000000000000000000000000000000000000000000000000600052602260045260246000fd5b60006002820490506001821680620005c557607f821691505b60208210811415620005dc57620005db6200057d565b5b50919050565b614cee80620005f26000396000f3fe6080604052600436106101b75760003560e01c80636352211e116100ec578063b88d4fde1161008a578063d5abeb0111610064578063d5abeb0114610600578063e0391b091461062b578063e985e9c514610656578063f2fde38b14610693576101b7565b8063b88d4fde1461058b578063c87b56dd146105a7578063d06a5510146105e4576101b7565b80638b66a5db116100c65780638b66a5db146104cf5780638da5cb5b1461050c57806395d89b4114610537578063a22cb46514610562576101b7565b80636352211e1461043e57806370a082311461047b578063715018a6146104b8576101b7565b806323b872dd11610159578063326bb4ad11610133578063326bb4ad1461038f57806342842e0e146103ba57806343bc1612146103d65780634f6ccce714610401576101b7565b806323b872dd1461030b57806327506f53146103275780632f745c5914610352576101b7565b8063081812fc11610195578063081812fc1461024f578063095ea7b31461028c57806313faede6146102b557806318160ddd146102e0576101b7565b806301ffc9a7146101bc578063047fc9aa146101f957806306fdde0314610224575b600080fd5b3480156101c857600080fd5b506101e360048036038101906101de91906132cb565b6106bc565b6040516101f09190613313565b60405180910390f35b34801561020557600080fd5b5061020e610736565b60405161021b9190613347565b60405180910390f35b34801561023057600080fd5b5061023961073c565b60405161024691906133fb565b60405180910390f35b34801561025b57600080fd5b5061027660048036038101906102719190613449565b6107ce565b60405161028391906134b7565b60405180910390f35b34801561029857600080fd5b506102b360048036038101906102ae91906134fe565b610853565b005b3480156102c157600080fd5b506102ca61096b565b6040516102d79190613347565b60405180910390f35b3480156102ec57600080fd5b506102f5610971565b6040516103029190613347565b60405180910390f35b6103256004803603810190610320919061353e565b61097e565b005b34801561033357600080fd5b5061033c610e6a565b6040516103499190613779565b60405180910390f35b34801561035e57600080fd5b50610379600480360381019061037491906134fe565b61114a565b6040516103869190613347565b60405180910390f35b34801561039b57600080fd5b506103a46111ef565b6040516103b19190613347565b60405180910390f35b6103d460048036038101906103cf919061353e565b6111f5565b005b3480156103e257600080fd5b506103eb611215565b6040516103f891906134b7565b60405180910390f35b34801561040d57600080fd5b5061042860048036038101906104239190613449565b61123b565b6040516104359190613347565b60405180910390f35b34801561044a57600080fd5b5061046560048036038101906104609190613449565b6112ac565b60405161047291906134b7565b60405180910390f35b34801561048757600080fd5b506104a2600480360381019061049d919061379b565b61135e565b6040516104af9190613347565b60405180910390f35b3480156104c457600080fd5b506104cd611416565b005b3480156104db57600080fd5b506104f660048036038101906104f191906138fd565b61149e565b6040516105039190613313565b60405180910390f35b34801561051857600080fd5b506105216114d9565b60405161052e91906134b7565b60405180910390f35b34801561054357600080fd5b5061054c611503565b60405161055991906133fb565b60405180910390f35b34801561056e57600080fd5b5061058960048036038101906105849190613972565b611595565b005b6105a560048036038101906105a09190613a53565b6115ab565b005b3480156105b357600080fd5b506105ce60048036038101906105c99190613449565b61160d565b6040516105db91906133fb565b60405180910390f35b6105fe60048036038101906105f99190613ad6565b6116b4565b005b34801561060c57600080fd5b50610615611b04565b6040516106229190613347565b60405180910390f35b34801561063757600080fd5b50610640611b0a565b60405161064d9190613779565b60405180910390f35b34801561066257600080fd5b5061067d60048036038101906106789190613b7d565b611dea565b60405161068a9190613313565b60405180910390f35b34801561069f57600080fd5b506106ba60048036038101906106b5919061379b565b611e7e565b005b60007f780e9d63000000000000000000000000000000000000000000000000000000007bffffffffffffffffffffffffffffffffffffffffffffffffffffffff1916827bffffffffffffffffffffffffffffffffffffffffffffffffffffffff1916148061072f575061072e82611f76565b5b9050919050565b600f5481565b60606000805461074b90613bec565b80601f016020809104026020016040519081016040528092919081815260200182805461077790613bec565b80156107c45780601f10610799576101008083540402835291602001916107c4565b820191906000526020600020905b8154815290600101906020018083116107a757829003601f168201915b5050505050905090565b60006107d982612058565b610818576040517f08c379a000000000000000000000000000000000000000000000000000000000815260040161080f90613c90565b60405180910390fd5b6004600083815260200190815260200160002060009054906101000a900473ffffffffffffffffffffffffffffffffffffffff169050919050565b600061085e826112ac565b90508073ffffffffffffffffffffffffffffffffffffffff168373ffffffffffffffffffffffffffffffffffffffff1614156108cf576040517f08c379a00000000000000000000000000000000000000000000000000000000081526004016108c690613d22565b60405180910390fd5b8073ffffffffffffffffffffffffffffffffffffffff166108ee6120c4565b73ffffffffffffffffffffffffffffffffffffffff16148061091d575061091c816109176120c4565b611dea565b5b61095c576040517f08c379a000000000000000000000000000000000000000000000000000000000815260040161095390613db4565b60405180910390fd5b61096683836120cc565b505050565b60105481565b6000600880549050905090565b61098f6109896120c4565b82612185565b6109ce576040517f08c379a00000000000000000000000000000000000000000000000000000000081526004016109c590613e46565b60405180910390fd5b60006064600e54346109e09190613e95565b6109ea9190613f1e565b9050610a18600d60009054906101000a900473ffffffffffffffffffffffffffffffffffffffff1682612263565b610a2d848234610a289190613f4f565b612263565b60116040518061010001604052808481526020018673ffffffffffffffffffffffffffffffffffffffff1681526020018573ffffffffffffffffffffffffffffffffffffffff16815260200134815260200160128581548110610a9357610a92613f83565b5b90600052602060002090600802016004018054610aaf90613bec565b80601f0160208091040260200160405190810160405280929190818152602001828054610adb90613bec565b8015610b285780601f10610afd57610100808354040283529160200191610b28565b820191906000526020600020905b815481529060010190602001808311610b0b57829003601f168201915b5050505050815260200160128581548110610b4657610b45613f83565b5b90600052602060002090600802016005018054610b6290613bec565b80601f0160208091040260200160405190810160405280929190818152602001828054610b8e90613bec565b8015610bdb5780601f10610bb057610100808354040283529160200191610bdb565b820191906000526020600020905b815481529060010190602001808311610bbe57829003601f168201915b5050505050815260200160128581548110610bf957610bf8613f83565b5b90600052602060002090600802016006018054610c1590613bec565b80601f0160208091040260200160405190810160405280929190818152602001828054610c4190613bec565b8015610c8e5780601f10610c6357610100808354040283529160200191610c8e565b820191906000526020600020905b815481529060010190602001808311610c7157829003601f168201915b505050505081526020014281525090806001815401808255809150506001900390600052602060002090600802016000909190919091506000820151816000015560208201518160010160006101000a81548173ffffffffffffffffffffffffffffffffffffffff021916908373ffffffffffffffffffffffffffffffffffffffff16021790555060408201518160020160006101000a81548173ffffffffffffffffffffffffffffffffffffffff021916908373ffffffffffffffffffffffffffffffffffffffff160217905550606082015181600301556080820151816004019080519060200190610d839291906131bc565b5060a0820151816005019080519060200190610da09291906131bc565b5060c0820151816006019080519060200190610dbd9291906131bc565b5060e0820151816007015550508273ffffffffffffffffffffffffffffffffffffffff168473ffffffffffffffffffffffffffffffffffffffff167f1bdfbffaa8395b26dd08fc601508f9d05fedf05d1494416e4077df529707fb7b843460128781548110610e2f57610e2e613f83565b5b906000526020600020906008020160060142604051610e519493929190614047565b60405180910390a3610e648484846122de565b50505050565b60606011805480602002602001604051908101604052809291908181526020016000905b82821015611141578382906000526020600020906008020160405180610100016040529081600082015481526020016001820160009054906101000a900473ffffffffffffffffffffffffffffffffffffffff1673ffffffffffffffffffffffffffffffffffffffff1673ffffffffffffffffffffffffffffffffffffffff1681526020016002820160009054906101000a900473ffffffffffffffffffffffffffffffffffffffff1673ffffffffffffffffffffffffffffffffffffffff1673ffffffffffffffffffffffffffffffffffffffff16815260200160038201548152602001600482018054610f8290613bec565b80601f0160208091040260200160405190810160405280929190818152602001828054610fae90613bec565b8015610ffb5780601f10610fd057610100808354040283529160200191610ffb565b820191906000526020600020905b815481529060010190602001808311610fde57829003601f168201915b5050505050815260200160058201805461101490613bec565b80601f016020809104026020016040519081016040528092919081815260200182805461104090613bec565b801561108d5780601f106110625761010080835404028352916020019161108d565b820191906000526020600020905b81548152906001019060200180831161107057829003601f168201915b505050505081526020016006820180546110a690613bec565b80601f01602080910402602001604051908101604052809291908181526020018280546110d290613bec565b801561111f5780601f106110f45761010080835404028352916020019161111f565b820191906000526020600020905b81548152906001019060200180831161110257829003601f168201915b5050505050815260200160078201548152505081526020019060010190610e8e565b50505050905090565b60006111558361135e565b8210611196576040517f08c379a000000000000000000000000000000000000000000000000000000000815260040161118d90614105565b60405180910390fd5b600660008473ffffffffffffffffffffffffffffffffffffffff1673ffffffffffffffffffffffffffffffffffffffff168152602001908152602001600020600083815260200190815260200160002054905092915050565b600e5481565b611210838383604051806020016040528060008152506115ab565b505050565b600d60009054906101000a900473ffffffffffffffffffffffffffffffffffffffff1681565b6000611245610971565b8210611286576040517f08c379a000000000000000000000000000000000000000000000000000000000815260040161127d90614197565b60405180910390fd5b6008828154811061129a57611299613f83565b5b90600052602060002001549050919050565b6000806002600084815260200190815260200160002060009054906101000a900473ffffffffffffffffffffffffffffffffffffffff169050600073ffffffffffffffffffffffffffffffffffffffff168173ffffffffffffffffffffffffffffffffffffffff161415611355576040517f08c379a000000000000000000000000000000000000000000000000000000000815260040161134c90614229565b60405180910390fd5b80915050919050565b60008073ffffffffffffffffffffffffffffffffffffffff168273ffffffffffffffffffffffffffffffffffffffff1614156113cf576040517f08c379a00000000000000000000000000000000000000000000000000000000081526004016113c6906142bb565b60405180910390fd5b600360008373ffffffffffffffffffffffffffffffffffffffff1673ffffffffffffffffffffffffffffffffffffffff168152602001908152602001600020549050919050565b61141e6120c4565b73ffffffffffffffffffffffffffffffffffffffff1661143c6114d9565b73ffffffffffffffffffffffffffffffffffffffff1614611492576040517f08c379a000000000000000000000000000000000000000000000000000000000815260040161148990614327565b60405180910390fd5b61149c600061253a565b565b60006001600b836040516114b29190614383565b908152602001604051809103902060009054906101000a900460ff1660ff16149050919050565b6000600a60009054906101000a900473ffffffffffffffffffffffffffffffffffffffff16905090565b60606001805461151290613bec565b80601f016020809104026020016040519081016040528092919081815260200182805461153e90613bec565b801561158b5780601f106115605761010080835404028352916020019161158b565b820191906000526020600020905b81548152906001019060200180831161156e57829003601f168201915b5050505050905090565b6115a76115a06120c4565b8383612600565b5050565b6115bc6115b66120c4565b83612185565b6115fb576040517f08c379a00000000000000000000000000000000000000000000000000000000081526004016115f290613e46565b60405180910390fd5b6116078484848461276d565b50505050565b606061161882612058565b611657576040517f08c379a000000000000000000000000000000000000000000000000000000000815260040161164e9061440c565b60405180910390fd5b60006116616127c9565b9050600081511161168157604051806020016040528060008152506116ac565b8061168b846127e0565b60405160200161169c92919061442c565b6040516020818303038152906040525b915050919050565b600c54600f5411156116fb576040517f08c379a00000000000000000000000000000000000000000000000000000000081526004016116f2906144c2565b60405180910390fd5b601054341015611740576040517f08c379a00000000000000000000000000000000000000000000000000000000081526004016117379061452e565b60405180910390fd5b6000600b826040516117529190614383565b908152602001604051809103902060009054906101000a900460ff1660ff16146117b1576040517f08c379a00000000000000000000000000000000000000000000000000000000081526004016117a89061459a565b60405180910390fd5b6117b96114d9565b73ffffffffffffffffffffffffffffffffffffffff163373ffffffffffffffffffffffffffffffffffffffff161415611827576040517f08c379a000000000000000000000000000000000000000000000000000000000815260040161181e90614606565b60405180910390fd5b6001600f600082825461183a9190614626565b925050819055506001600b826040516118539190614383565b908152602001604051809103902060006101000a81548160ff021916908360ff16021790555060006064600e543461188b9190613e95565b6118959190613f1e565b90506118c3600d60009054906101000a900473ffffffffffffffffffffffffffffffffffffffff1682612263565b6118df6118ce6114d9565b82346118da9190613f4f565b612263565b6012604051806101000160405280600f5481526020016118fd6114d9565b73ffffffffffffffffffffffffffffffffffffffff1681526020013373ffffffffffffffffffffffffffffffffffffffff1681526020013481526020018681526020018581526020018481526020014281525090806001815401808255809150506001900390600052602060002090600802016000909190919091506000820151816000015560208201518160010160006101000a81548173ffffffffffffffffffffffffffffffffffffffff021916908373ffffffffffffffffffffffffffffffffffffffff16021790555060408201518160020160006101000a81548173ffffffffffffffffffffffffffffffffffffffff021916908373ffffffffffffffffffffffffffffffffffffffff160217905550606082015181600301556080820151816004019080519060200190611a379291906131bc565b5060a0820151816005019080519060200190611a549291906131bc565b5060c0820151816006019080519060200190611a719291906131bc565b5060e0820151816007015550503373ffffffffffffffffffffffffffffffffffffffff16611a9d6114d9565b73ffffffffffffffffffffffffffffffffffffffff167f1bdfbffaa8395b26dd08fc601508f9d05fedf05d1494416e4077df529707fb7b600f54348642604051611aea949392919061467c565b60405180910390a3611afe33600f54612941565b50505050565b600c5481565b60606012805480602002602001604051908101604052809291908181526020016000905b82821015611de1578382906000526020600020906008020160405180610100016040529081600082015481526020016001820160009054906101000a900473ffffffffffffffffffffffffffffffffffffffff1673ffffffffffffffffffffffffffffffffffffffff1673ffffffffffffffffffffffffffffffffffffffff1681526020016002820160009054906101000a900473ffffffffffffffffffffffffffffffffffffffff1673ffffffffffffffffffffffffffffffffffffffff1673ffffffffffffffffffffffffffffffffffffffff16815260200160038201548152602001600482018054611c2290613bec565b80601f0160208091040260200160405190810160405280929190818152602001828054611c4e90613bec565b8015611c9b5780601f10611c7057610100808354040283529160200191611c9b565b820191906000526020600020905b815481529060010190602001808311611c7e57829003601f168201915b50505050508152602001600582018054611cb490613bec565b80601f0160208091040260200160405190810160405280929190818152602001828054611ce090613bec565b8015611d2d5780601f10611d0257610100808354040283529160200191611d2d565b820191906000526020600020905b815481529060010190602001808311611d1057829003601f168201915b50505050508152602001600682018054611d4690613bec565b80601f0160208091040260200160405190810160405280929190818152602001828054611d7290613bec565b8015611dbf5780601f10611d9457610100808354040283529160200191611dbf565b820191906000526020600020905b815481529060010190602001808311611da257829003601f168201915b5050505050815260200160078201548152505081526020019060010190611b2e565b50505050905090565b6000600560008473ffffffffffffffffffffffffffffffffffffffff1673ffffffffffffffffffffffffffffffffffffffff16815260200190815260200160002060008373ffffffffffffffffffffffffffffffffffffffff1673ffffffffffffffffffffffffffffffffffffffff16815260200190815260200160002060009054906101000a900460ff16905092915050565b611e866120c4565b73ffffffffffffffffffffffffffffffffffffffff16611ea46114d9565b73ffffffffffffffffffffffffffffffffffffffff1614611efa576040517f08c379a0000000000000000000000000000000000000000000000000000000008152600401611ef190614327565b60405180910390fd5b600073ffffffffffffffffffffffffffffffffffffffff168173ffffffffffffffffffffffffffffffffffffffff161415611f6a576040517f08c379a0000000000000000000000000000000000000000000000000000000008152600401611f619061473a565b60405180910390fd5b611f738161253a565b50565b60007f80ac58cd000000000000000000000000000000000000000000000000000000007bffffffffffffffffffffffffffffffffffffffffffffffffffffffff1916827bffffffffffffffffffffffffffffffffffffffffffffffffffffffff1916148061204157507f5b5e139f000000000000000000000000000000000000000000000000000000007bffffffffffffffffffffffffffffffffffffffffffffffffffffffff1916827bffffffffffffffffffffffffffffffffffffffffffffffffffffffff1916145b8061205157506120508261295f565b5b9050919050565b60008073ffffffffffffffffffffffffffffffffffffffff166002600084815260200190815260200160002060009054906101000a900473ffffffffffffffffffffffffffffffffffffffff1673ffffffffffffffffffffffffffffffffffffffff1614159050919050565b600033905090565b816004600083815260200190815260200160002060006101000a81548173ffffffffffffffffffffffffffffffffffffffff021916908373ffffffffffffffffffffffffffffffffffffffff160217905550808273ffffffffffffffffffffffffffffffffffffffff1661213f836112ac565b73ffffffffffffffffffffffffffffffffffffffff167f8c5be1e5ebec7d5bd14f71427d1e84f3dd0314c0f7b2291e5b200ac8c7c3b92560405160405180910390a45050565b600061219082612058565b6121cf576040517f08c379a00000000000000000000000000000000000000000000000000000000081526004016121c6906147cc565b60405180910390fd5b60006121da836112ac565b90508073ffffffffffffffffffffffffffffffffffffffff168473ffffffffffffffffffffffffffffffffffffffff16148061224957508373ffffffffffffffffffffffffffffffffffffffff16612231846107ce565b73ffffffffffffffffffffffffffffffffffffffff16145b8061225a57506122598185611dea565b5b91505092915050565b60008273ffffffffffffffffffffffffffffffffffffffff16826040516122899061481d565b60006040518083038185875af1925050503d80600081146122c6576040519150601f19603f3d011682016040523d82523d6000602084013e6122cb565b606091505b50509050806122d957600080fd5b505050565b8273ffffffffffffffffffffffffffffffffffffffff166122fe826112ac565b73ffffffffffffffffffffffffffffffffffffffff1614612354576040517f08c379a000000000000000000000000000000000000000000000000000000000815260040161234b906148a4565b60405180910390fd5b600073ffffffffffffffffffffffffffffffffffffffff168273ffffffffffffffffffffffffffffffffffffffff1614156123c4576040517f08c379a00000000000000000000000000000000000000000000000000000000081526004016123bb90614936565b60405180910390fd5b6123cf8383836129c9565b6123da6000826120cc565b6001600360008573ffffffffffffffffffffffffffffffffffffffff1673ffffffffffffffffffffffffffffffffffffffff168152602001908152602001600020600082825461242a9190613f4f565b925050819055506001600360008473ffffffffffffffffffffffffffffffffffffffff1673ffffffffffffffffffffffffffffffffffffffff16815260200190815260200160002060008282546124819190614626565b92505081905550816002600083815260200190815260200160002060006101000a81548173ffffffffffffffffffffffffffffffffffffffff021916908373ffffffffffffffffffffffffffffffffffffffff160217905550808273ffffffffffffffffffffffffffffffffffffffff168473ffffffffffffffffffffffffffffffffffffffff167fddf252ad1be2c89b69c2b068fc378daa952ba7f163c4a11628f55a4df523b3ef60405160405180910390a4505050565b6000600a60009054906101000a900473ffffffffffffffffffffffffffffffffffffffff16905081600a60006101000a81548173ffffffffffffffffffffffffffffffffffffffff021916908373ffffffffffffffffffffffffffffffffffffffff1602179055508173ffffffffffffffffffffffffffffffffffffffff168173ffffffffffffffffffffffffffffffffffffffff167f8be0079c531659141344cd1fd0a4f28419497f9722a3daafe3b4186f6b6457e060405160405180910390a35050565b8173ffffffffffffffffffffffffffffffffffffffff168373ffffffffffffffffffffffffffffffffffffffff16141561266f576040517f08c379a0000000000000000000000000000000000000000000000000000000008152600401612666906149a2565b60405180910390fd5b80600560008573ffffffffffffffffffffffffffffffffffffffff1673ffffffffffffffffffffffffffffffffffffffff16815260200190815260200160002060008473ffffffffffffffffffffffffffffffffffffffff1673ffffffffffffffffffffffffffffffffffffffff16815260200190815260200160002060006101000a81548160ff0219169083151502179055508173ffffffffffffffffffffffffffffffffffffffff168373ffffffffffffffffffffffffffffffffffffffff167f17307eab39ab6107e8899845ad3d59bd9653f200f220920489ca2b5937696c31836040516127609190613313565b60405180910390a3505050565b6127788484846122de565b61278484848484612add565b6127c3576040517f08c379a00000000000000000000000000000000000000000000000000000000081526004016127ba90614a34565b60405180910390fd5b50505050565b606060405180602001604052806000815250905090565b60606000821415612828576040518060400160405280600181526020017f3000000000000000000000000000000000000000000000000000000000000000815250905061293c565b600082905060005b6000821461285a57808061284390614a54565b915050600a826128539190613f1e565b9150612830565b60008167ffffffffffffffff811115612876576128756137d2565b5b6040519080825280601f01601f1916602001820160405280156128a85781602001600182028036833780820191505090505b5090505b60008514612935576001826128c19190613f4f565b9150600a856128d09190614a9d565b60306128dc9190614626565b60f81b8183815181106128f2576128f1613f83565b5b60200101907effffffffffffffffffffffffffffffffffffffffffffffffffffffffffffff1916908160001a905350600a8561292e9190613f1e565b94506128ac565b8093505050505b919050565b61295b828260405180602001604052806000815250612c65565b5050565b60007f01ffc9a7000000000000000000000000000000000000000000000000000000007bffffffffffffffffffffffffffffffffffffffffffffffffffffffff1916827bffffffffffffffffffffffffffffffffffffffffffffffffffffffff1916149050919050565b6129d4838383612cc0565b600073ffffffffffffffffffffffffffffffffffffffff168373ffffffffffffffffffffffffffffffffffffffff161415612a1757612a1281612cc5565b612a56565b8173ffffffffffffffffffffffffffffffffffffffff168373ffffffffffffffffffffffffffffffffffffffff1614612a5557612a548382612d0e565b5b5b600073ffffffffffffffffffffffffffffffffffffffff168273ffffffffffffffffffffffffffffffffffffffff161415612a9957612a9481612e7b565b612ad8565b8273ffffffffffffffffffffffffffffffffffffffff168273ffffffffffffffffffffffffffffffffffffffff1614612ad757612ad68282612f4c565b5b5b505050565b6000612afe8473ffffffffffffffffffffffffffffffffffffffff16612fcb565b15612c58578373ffffffffffffffffffffffffffffffffffffffff1663150b7a02612b276120c4565b8786866040518563ffffffff1660e01b8152600401612b499493929190614b23565b6020604051808303816000875af1925050508015612b8557506040513d601f19601f82011682018060405250810190612b829190614b84565b60015b612c08573d8060008114612bb5576040519150601f19603f3d011682016040523d82523d6000602084013e612bba565b606091505b50600081511415612c00576040517f08c379a0000000000000000000000000000000000000000000000000000000008152600401612bf790614a34565b60405180910390fd5b805181602001fd5b63150b7a0260e01b7bffffffffffffffffffffffffffffffffffffffffffffffffffffffff1916817bffffffffffffffffffffffffffffffffffffffffffffffffffffffff191614915050612c5d565b600190505b949350505050565b612c6f8383612fee565b612c7c6000848484612add565b612cbb576040517f08c379a0000000000000000000000000000000000000000000000000000000008152600401612cb290614a34565b60405180910390fd5b505050565b505050565b6008805490506009600083815260200190815260200160002081905550600881908060018154018082558091505060019003906000526020600020016000909190919091505550565b60006001612d1b8461135e565b612d259190613f4f565b9050600060076000848152602001908152602001600020549050818114612e0a576000600660008673ffffffffffffffffffffffffffffffffffffffff1673ffffffffffffffffffffffffffffffffffffffff168152602001908152602001600020600084815260200190815260200160002054905080600660008773ffffffffffffffffffffffffffffffffffffffff1673ffffffffffffffffffffffffffffffffffffffff168152602001908152602001600020600084815260200190815260200160002081905550816007600083815260200190815260200160002081905550505b6007600084815260200190815260200160002060009055600660008573ffffffffffffffffffffffffffffffffffffffff1673ffffffffffffffffffffffffffffffffffffffff16815260200190815260200160002060008381526020019081526020016000206000905550505050565b60006001600880549050612e8f9190613f4f565b9050600060096000848152602001908152602001600020549050600060088381548110612ebf57612ebe613f83565b5b906000526020600020015490508060088381548110612ee157612ee0613f83565b5b906000526020600020018190555081600960008381526020019081526020016000208190555060096000858152602001908152602001600020600090556008805480612f3057612f2f614bb1565b5b6001900381819060005260206000200160009055905550505050565b6000612f578361135e565b905081600660008573ffffffffffffffffffffffffffffffffffffffff1673ffffffffffffffffffffffffffffffffffffffff168152602001908152602001600020600083815260200190815260200160002081905550806007600084815260200190815260200160002081905550505050565b6000808273ffffffffffffffffffffffffffffffffffffffff163b119050919050565b600073ffffffffffffffffffffffffffffffffffffffff168273ffffffffffffffffffffffffffffffffffffffff16141561305e576040517f08c379a000000000000000000000000000000000000000000000000000000000815260040161305590614c2c565b60405180910390fd5b61306781612058565b156130a7576040517f08c379a000000000000000000000000000000000000000000000000000000000815260040161309e90614c98565b60405180910390fd5b6130b3600083836129c9565b6001600360008473ffffffffffffffffffffffffffffffffffffffff1673ffffffffffffffffffffffffffffffffffffffff16815260200190815260200160002060008282546131039190614626565b92505081905550816002600083815260200190815260200160002060006101000a81548173ffffffffffffffffffffffffffffffffffffffff021916908373ffffffffffffffffffffffffffffffffffffffff160217905550808273ffffffffffffffffffffffffffffffffffffffff16600073ffffffffffffffffffffffffffffffffffffffff167fddf252ad1be2c89b69c2b068fc378daa952ba7f163c4a11628f55a4df523b3ef60405160405180910390a45050565b8280546131c890613bec565b90600052602060002090601f0160209004810192826131ea5760008555613231565b82601f1061320357805160ff1916838001178555613231565b82800160010185558215613231579182015b82811115613230578251825591602001919060010190613215565b5b50905061323e9190613242565b5090565b5b8082111561325b576000816000905550600101613243565b5090565b6000604051905090565b600080fd5b600080fd5b60007fffffffff0000000000000000000000000000000000000000000000000000000082169050919050565b6132a881613273565b81146132b357600080fd5b50565b6000813590506132c58161329f565b92915050565b6000602082840312156132e1576132e0613269565b5b60006132ef848285016132b6565b91505092915050565b60008115159050919050565b61330d816132f8565b82525050565b60006020820190506133286000830184613304565b92915050565b6000819050919050565b6133418161332e565b82525050565b600060208201905061335c6000830184613338565b92915050565b600081519050919050565b600082825260208201905092915050565b60005b8381101561339c578082015181840152602081019050613381565b838111156133ab576000848401525b50505050565b6000601f19601f8301169050919050565b60006133cd82613362565b6133d7818561336d565b93506133e781856020860161337e565b6133f0816133b1565b840191505092915050565b6000602082019050818103600083015261341581846133c2565b905092915050565b6134268161332e565b811461343157600080fd5b50565b6000813590506134438161341d565b92915050565b60006020828403121561345f5761345e613269565b5b600061346d84828501613434565b91505092915050565b600073ffffffffffffffffffffffffffffffffffffffff82169050919050565b60006134a182613476565b9050919050565b6134b181613496565b82525050565b60006020820190506134cc60008301846134a8565b92915050565b6134db81613496565b81146134e657600080fd5b50565b6000813590506134f8816134d2565b92915050565b6000806040838503121561351557613514613269565b5b6000613523858286016134e9565b925050602061353485828601613434565b9150509250929050565b60008060006060848603121561355757613556613269565b5b6000613565868287016134e9565b9350506020613576868287016134e9565b925050604061358786828701613434565b9150509250925092565b600081519050919050565b600082825260208201905092915050565b6000819050602082019050919050565b6135c68161332e565b82525050565b6135d581613496565b82525050565b600082825260208201905092915050565b60006135f782613362565b61360181856135db565b935061361181856020860161337e565b61361a816133b1565b840191505092915050565b60006101008301600083015161363e60008601826135bd565b50602083015161365160208601826135cc565b50604083015161366460408601826135cc565b50606083015161367760608601826135bd565b506080830151848203608086015261368f82826135ec565b91505060a083015184820360a08601526136a982826135ec565b91505060c083015184820360c08601526136c382826135ec565b91505060e08301516136d860e08601826135bd565b508091505092915050565b60006136ef8383613625565b905092915050565b6000602082019050919050565b600061370f82613591565b613719818561359c565b93508360208202850161372b856135ad565b8060005b85811015613767578484038952815161374885826136e3565b9450613753836136f7565b925060208a0199505060018101905061372f565b50829750879550505050505092915050565b600060208201905081810360008301526137938184613704565b905092915050565b6000602082840312156137b1576137b0613269565b5b60006137bf848285016134e9565b91505092915050565b600080fd5b600080fd5b7f4e487b7100000000000000000000000000000000000000000000000000000000600052604160045260246000fd5b61380a826133b1565b810181811067ffffffffffffffff82111715613829576138286137d2565b5b80604052505050565b600061383c61325f565b90506138488282613801565b919050565b600067ffffffffffffffff821115613868576138676137d2565b5b613871826133b1565b9050602081019050919050565b82818337600083830152505050565b60006138a061389b8461384d565b613832565b9050828152602081018484840111156138bc576138bb6137cd565b5b6138c784828561387e565b509392505050565b600082601f8301126138e4576138e36137c8565b5b81356138f484826020860161388d565b91505092915050565b60006020828403121561391357613912613269565b5b600082013567ffffffffffffffff8111156139315761393061326e565b5b61393d848285016138cf565b91505092915050565b61394f816132f8565b811461395a57600080fd5b50565b60008135905061396c81613946565b92915050565b6000806040838503121561398957613988613269565b5b6000613997858286016134e9565b92505060206139a88582860161395d565b9150509250929050565b600067ffffffffffffffff8211156139cd576139cc6137d2565b5b6139d6826133b1565b9050602081019050919050565b60006139f66139f1846139b2565b613832565b905082815260208101848484011115613a1257613a116137cd565b5b613a1d84828561387e565b509392505050565b600082601f830112613a3a57613a396137c8565b5b8135613a4a8482602086016139e3565b91505092915050565b60008060008060808587031215613a6d57613a6c613269565b5b6000613a7b878288016134e9565b9450506020613a8c878288016134e9565b9350506040613a9d87828801613434565b925050606085013567ffffffffffffffff811115613abe57613abd61326e565b5b613aca87828801613a25565b91505092959194509250565b600080600060608486031215613aef57613aee613269565b5b600084013567ffffffffffffffff811115613b0d57613b0c61326e565b5b613b19868287016138cf565b935050602084013567ffffffffffffffff811115613b3a57613b3961326e565b5b613b46868287016138cf565b925050604084013567ffffffffffffffff811115613b6757613b6661326e565b5b613b73868287016138cf565b9150509250925092565b60008060408385031215613b9457613b93613269565b5b6000613ba2858286016134e9565b9250506020613bb3858286016134e9565b9150509250929050565b7f4e487b7100000000000000000000000000000000000000000000000000000000600052602260045260246000fd5b60006002820490506001821680613c0457607f821691505b60208210811415613c1857613c17613bbd565b5b50919050565b7f4552433732313a20617070726f76656420717565727920666f72206e6f6e657860008201527f697374656e7420746f6b656e0000000000000000000000000000000000000000602082015250565b6000613c7a602c8361336d565b9150613c8582613c1e565b604082019050919050565b60006020820190508181036000830152613ca981613c6d565b9050919050565b7f4552433732313a20617070726f76616c20746f2063757272656e74206f776e6560008201527f7200000000000000000000000000000000000000000000000000000000000000602082015250565b6000613d0c60218361336d565b9150613d1782613cb0565b604082019050919050565b60006020820190508181036000830152613d3b81613cff565b9050919050565b7f4552433732313a20617070726f76652063616c6c6572206973206e6f74206f7760008201527f6e6572206e6f7220617070726f76656420666f7220616c6c0000000000000000602082015250565b6000613d9e60388361336d565b9150613da982613d42565b604082019050919050565b60006020820190508181036000830152613dcd81613d91565b9050919050565b7f4552433732313a207472616e736665722063616c6c6572206973206e6f74206f60008201527f776e6572206e6f7220617070726f766564000000000000000000000000000000602082015250565b6000613e3060318361336d565b9150613e3b82613dd4565b604082019050919050565b60006020820190508181036000830152613e5f81613e23565b9050919050565b7f4e487b7100000000000000000000000000000000000000000000000000000000600052601160045260246000fd5b6000613ea08261332e565b9150613eab8361332e565b9250817fffffffffffffffffffffffffffffffffffffffffffffffffffffffffffffffff0483118215151615613ee457613ee3613e66565b5b828202905092915050565b7f4e487b7100000000000000000000000000000000000000000000000000000000600052601260045260246000fd5b6000613f298261332e565b9150613f348361332e565b925082613f4457613f43613eef565b5b828204905092915050565b6000613f5a8261332e565b9150613f658361332e565b925082821015613f7857613f77613e66565b5b828203905092915050565b7f4e487b7100000000000000000000000000000000000000000000000000000000600052603260045260246000fd5b60008190508160005260206000209050919050565b60008154613fd481613bec565b613fde818661336d565b94506001821660008114613ff9576001811461400b5761403e565b60ff198316865260208601935061403e565b61401485613fb2565b60005b8381101561403657815481890152600182019150602081019050614017565b808801955050505b50505092915050565b600060808201905061405c6000830187613338565b6140696020830186613338565b818103604083015261407b8185613fc7565b905061408a6060830184613338565b95945050505050565b7f455243373231456e756d657261626c653a206f776e657220696e646578206f7560008201527f74206f6620626f756e6473000000000000000000000000000000000000000000602082015250565b60006140ef602b8361336d565b91506140fa82614093565b604082019050919050565b6000602082019050818103600083015261411e816140e2565b9050919050565b7f455243373231456e756d657261626c653a20676c6f62616c20696e646578206f60008201527f7574206f6620626f756e64730000000000000000000000000000000000000000602082015250565b6000614181602c8361336d565b915061418c82614125565b604082019050919050565b600060208201905081810360008301526141b081614174565b9050919050565b7f4552433732313a206f776e657220717565727920666f72206e6f6e657869737460008201527f656e7420746f6b656e0000000000000000000000000000000000000000000000602082015250565b600061421360298361336d565b915061421e826141b7565b604082019050919050565b6000602082019050818103600083015261424281614206565b9050919050565b7f4552433732313a2062616c616e636520717565727920666f7220746865207a6560008201527f726f206164647265737300000000000000000000000000000000000000000000602082015250565b60006142a5602a8361336d565b91506142b082614249565b604082019050919050565b600060208201905081810360008301526142d481614298565b9050919050565b7f4f776e61626c653a2063616c6c6572206973206e6f7420746865206f776e6572600082015250565b600061431160208361336d565b915061431c826142db565b602082019050919050565b6000602082019050818103600083015261434081614304565b9050919050565b600081905092915050565b600061435d82613362565b6143678185614347565b935061437781856020860161337e565b80840191505092915050565b600061438f8284614352565b915081905092915050565b7f4552433732314d657461646174613a2055524920717565727920666f72206e6f60008201527f6e6578697374656e7420746f6b656e0000000000000000000000000000000000602082015250565b60006143f6602f8361336d565b91506144018261439a565b604082019050919050565b60006020820190508181036000830152614425816143e9565b9050919050565b60006144388285614352565b91506144448284614352565b91508190509392505050565b7f536f7272792c20616c6c204e4654732068617665206265656e206d696e74656460008201527f2100000000000000000000000000000000000000000000000000000000000000602082015250565b60006144ac60218361336d565b91506144b782614450565b604082019050919050565b600060208201905081810360008301526144db8161449f565b9050919050565b7f457468657220746f6f206c6f7720666f72206d696e74696e6721000000000000600082015250565b6000614518601a8361336d565b9150614523826144e2565b602082019050919050565b600060208201905081810360008301526145478161450b565b9050919050565b7f54686973204e465420697320616c7265616479206d696e746564210000000000600082015250565b6000614584601b8361336d565b915061458f8261454e565b602082019050919050565b600060208201905081810360008301526145b381614577565b9050919050565b7f53616c6573206e6f7420616c6c6f776564210000000000000000000000000000600082015250565b60006145f060128361336d565b91506145fb826145ba565b602082019050919050565b6000602082019050818103600083015261461f816145e3565b9050919050565b60006146318261332e565b915061463c8361332e565b9250827fffffffffffffffffffffffffffffffffffffffffffffffffffffffffffffffff0382111561467157614670613e66565b5b828201905092915050565b60006080820190506146916000830187613338565b61469e6020830186613338565b81810360408301526146b081856133c2565b90506146bf6060830184613338565b95945050505050565b7f4f776e61626c653a206e6577206f776e657220697320746865207a65726f206160008201527f6464726573730000000000000000000000000000000000000000000000000000602082015250565b600061472460268361336d565b915061472f826146c8565b604082019050919050565b6000602082019050818103600083015261475381614717565b9050919050565b7f4552433732313a206f70657261746f7220717565727920666f72206e6f6e657860008201527f697374656e7420746f6b656e0000000000000000000000000000000000000000602082015250565b60006147b6602c8361336d565b91506147c18261475a565b604082019050919050565b600060208201905081810360008301526147e5816147a9565b9050919050565b600081905092915050565b50565b60006148076000836147ec565b9150614812826147f7565b600082019050919050565b6000614828826147fa565b9150819050919050565b7f4552433732313a207472616e73666572206f6620746f6b656e2074686174206960008201527f73206e6f74206f776e0000000000000000000000000000000000000000000000602082015250565b600061488e60298361336d565b915061489982614832565b604082019050919050565b600060208201905081810360008301526148bd81614881565b9050919050565b7f4552433732313a207472616e7366657220746f20746865207a65726f2061646460008201527f7265737300000000000000000000000000000000000000000000000000000000602082015250565b600061492060248361336d565b915061492b826148c4565b604082019050919050565b6000602082019050818103600083015261494f81614913565b9050919050565b7f4552433732313a20617070726f766520746f2063616c6c657200000000000000600082015250565b600061498c60198361336d565b915061499782614956565b602082019050919050565b600060208201905081810360008301526149bb8161497f565b9050919050565b7f4552433732313a207472616e7366657220746f206e6f6e20455243373231526560008201527f63656976657220696d706c656d656e7465720000000000000000000000000000602082015250565b6000614a1e60328361336d565b9150614a29826149c2565b604082019050919050565b60006020820190508181036000830152614a4d81614a11565b9050919050565b6000614a5f8261332e565b91507fffffffffffffffffffffffffffffffffffffffffffffffffffffffffffffffff821415614a9257614a91613e66565b5b600182019050919050565b6000614aa88261332e565b9150614ab38361332e565b925082614ac357614ac2613eef565b5b828206905092915050565b600081519050919050565b600082825260208201905092915050565b6000614af582614ace565b614aff8185614ad9565b9350614b0f81856020860161337e565b614b18816133b1565b840191505092915050565b6000608082019050614b3860008301876134a8565b614b4560208301866134a8565b614b526040830185613338565b8181036060830152614b648184614aea565b905095945050505050565b600081519050614b7e8161329f565b92915050565b600060208284031215614b9a57614b99613269565b5b6000614ba884828501614b6f565b91505092915050565b7f4e487b7100000000000000000000000000000000000000000000000000000000600052603160045260246000fd5b7f4552433732313a206d696e7420746f20746865207a65726f2061646472657373600082015250565b6000614c1660208361336d565b9150614c2182614be0565b602082019050919050565b60006020820190508181036000830152614c4581614c09565b9050919050565b7f4552433732313a20746f6b656e20616c7265616479206d696e74656400000000600082015250565b6000614c82601c8361336d565b9150614c8d82614c4c565b602082019050919050565b60006020820190508181036000830152614cb181614c75565b905091905056fea264697066735822122032473a87345c178c8ef8b3904b8936976d82a2d69df205adb5703f0d0d40c02764736f6c634300080b0033",
  "immutableReferences": {},
  "source": "// SPDX-License-Identifier: MIT\r\npragma solidity >=0.7.0 <0.9.0;\r\n\r\nimport \"./ERC721.sol\";\r\nimport \"./ERC721Enumerable.sol\";\r\nimport \"@openzeppelin/contracts/access/Ownable.sol\";\r\n\r\ncontract TimelessNFT is ERC721Enumerable, Ownable {\r\n    using Strings for uint256;\r\n\r\n    mapping(string => uint8) existingURIs;\r\n    uint256 public maxSupply = 100;\r\n    address public artist;\r\n    uint256 public royalityFee;\r\n    uint256 public supply;\r\n    uint256 public cost = 0.01 ether;\r\n\r\n    event Sale(\r\n        uint256 id,\r\n        address indexed from,\r\n        address indexed to,\r\n        uint256 cost,\r\n        string metadataURI,\r\n        uint256 timestamp\r\n    );\r\n\r\n    struct TransactionStruct {\r\n        uint256 id;\r\n        address from;\r\n        address to;\r\n        uint256 cost;\r\n        string title;\r\n        string description;\r\n        string metadataURI;\r\n        uint256 timestamp;\r\n    }\r\n\r\n    TransactionStruct[] transactions;\r\n    TransactionStruct[] minted;\r\n\r\n    constructor(\r\n        string memory _name,\r\n        string memory _symbol,\r\n        uint256 _royalityFee,\r\n        address _artist\r\n    ) ERC721(_name, _symbol) {\r\n        royalityFee = _royalityFee;\r\n        artist = _artist;\r\n        supply = totalSupply();\r\n    }\r\n\r\n    function isNFTOwned(string memory uri) public view returns (bool) {\r\n        return existingURIs[uri] == 1;\r\n    }\r\n\r\n    function payToMint(\r\n        string memory title,\r\n        string memory description,\r\n        string memory metadataURI\r\n    ) public payable {\r\n        require(supply <= maxSupply, \"Sorry, all NFTs have been minted!\");\r\n        require(msg.value >= cost, \"Ether too low for minting!\");\r\n        require(existingURIs[metadataURI] == 0, \"This NFT is already minted!\");\r\n        require(msg.sender != owner(), \"Sales not allowed!\");\r\n\r\n        supply += 1;\r\n        existingURIs[metadataURI] = 1;\r\n\r\n        uint256 royality = (msg.value * royalityFee) / 100;\r\n\r\n        payTo(artist, royality);\r\n        payTo(owner(), (msg.value - royality));\r\n\r\n        minted.push(\r\n            TransactionStruct(\r\n                supply,\r\n                owner(),\r\n                msg.sender,\r\n                msg.value,\r\n                title,\r\n                description,\r\n                metadataURI,\r\n                block.timestamp\r\n            )\r\n        );\r\n\r\n        emit Sale(\r\n            supply,\r\n            owner(),\r\n            msg.sender,\r\n            msg.value,\r\n            metadataURI,\r\n            block.timestamp\r\n        );\r\n\r\n        _safeMint(msg.sender, supply);\r\n    }\r\n\r\n    function transferFrom(\r\n        address from,\r\n        address to,\r\n        uint256 tokenId\r\n    ) public payable override {\r\n        require(\r\n            _isApprovedOrOwner(_msgSender(), tokenId),\r\n            \"ERC721: transfer caller is not owner nor approved\"\r\n        );\r\n        // require(msg.value >= cost, \"Ether too low for minting!\");\r\n\r\n        uint256 royality = (msg.value * royalityFee) / 100;\r\n        payTo(artist, royality);\r\n        payTo(from, (msg.value - royality));\r\n\r\n        transactions.push(\r\n            TransactionStruct(\r\n                tokenId,\r\n                from,\r\n                to,\r\n                msg.value,\r\n                minted[tokenId].title,\r\n                minted[tokenId].description,\r\n                minted[tokenId].metadataURI,\r\n                block.timestamp\r\n            )\r\n        );\r\n\r\n        emit Sale(\r\n            tokenId,\r\n            from,\r\n            to,\r\n            msg.value,\r\n            minted[tokenId].metadataURI,\r\n            block.timestamp\r\n        );\r\n\r\n        _transfer(from, to, tokenId);\r\n    }\r\n\r\n    function payTo(address to, uint256 amount) internal {\r\n        (bool success1, ) = payable(to).call{value: amount}(\"\");\r\n        require(success1);\r\n    }\r\n\r\n    function getAllNFTs() public view returns (TransactionStruct[] memory) {\r\n        return minted;\r\n    }\r\n\r\n    function getAllTransactions() public view returns (TransactionStruct[] memory) {\r\n        return transactions;\r\n    }\r\n}\r\n",
  "sourcePath": "C:\\sites\\dapps\\timelessNFT\\src\\contracts\\TimelessNFT.sol",
  "compiler": {
    "name": "solc",
    "version": "0.8.11+commit.d7f03943.Emscripten.clang"
  },
  "schemaVersion": "3.4.4",
  "updatedAt": "2022-04-18T12:45:58.319Z",
  "networkType": "ethereum",
  "devdoc": {
    "kind": "dev",
    "methods": {
      "approve(address,uint256)": {
        "details": "See {IERC721-approve}."
      },
      "balanceOf(address)": {
        "details": "See {IERC721-balanceOf}."
      },
      "getApproved(uint256)": {
        "details": "See {IERC721-getApproved}."
      },
      "isApprovedForAll(address,address)": {
        "details": "See {IERC721-isApprovedForAll}."
      },
      "name()": {
        "details": "See {IERC721Metadata-name}."
      },
      "owner()": {
        "details": "Returns the address of the current owner."
      },
      "ownerOf(uint256)": {
        "details": "See {IERC721-ownerOf}."
      },
      "renounceOwnership()": {
        "details": "Leaves the contract without owner. It will not be possible to call `onlyOwner` functions anymore. Can only be called by the current owner. NOTE: Renouncing ownership will leave the contract without an owner, thereby removing any functionality that is only available to the owner."
      },
      "safeTransferFrom(address,address,uint256)": {
        "details": "See {IERC721-safeTransferFrom}."
      },
      "safeTransferFrom(address,address,uint256,bytes)": {
        "details": "See {IERC721-safeTransferFrom}."
      },
      "setApprovalForAll(address,bool)": {
        "details": "See {IERC721-setApprovalForAll}."
      },
      "supportsInterface(bytes4)": {
        "details": "See {IERC165-supportsInterface}."
      },
      "symbol()": {
        "details": "See {IERC721Metadata-symbol}."
      },
      "tokenByIndex(uint256)": {
        "details": "See {IERC721Enumerable-tokenByIndex}."
      },
      "tokenOfOwnerByIndex(address,uint256)": {
        "details": "See {IERC721Enumerable-tokenOfOwnerByIndex}."
      },
      "tokenURI(uint256)": {
        "details": "See {IERC721Metadata-tokenURI}."
      },
      "totalSupply()": {
        "details": "See {IERC721Enumerable-totalSupply}."
      },
      "transferFrom(address,address,uint256)": {
        "details": "See {IERC721-transferFrom}."
      },
      "transferOwnership(address)": {
        "details": "Transfers ownership of the contract to a new account (`newOwner`). Can only be called by the current owner."
      }
    },
    "version": 1
  },
  "userdoc": {
    "kind": "user",
    "methods": {},
    "version": 1
  }
}