{
  "contractName": "TimelessNFT",
  "abi": [
    {
      "inputs": [
        {
          "internalType": "string",
          "name": "_name",
          "type": "string"
        },
        {
          "internalType": "string",
          "name": "_symbol",
          "type": "string"
        },
        {
          "internalType": "uint256",
          "name": "_royalityFee",
          "type": "uint256"
        },
        {
          "internalType": "address",
          "name": "_artist",
          "type": "address"
        }
      ],
      "stateMutability": "nonpayable",
      "type": "constructor"
    },
    {
      "anonymous": false,
      "inputs": [
        {
          "indexed": true,
          "internalType": "address",
          "name": "owner",
          "type": "address"
        },
        {
          "indexed": true,
          "internalType": "address",
          "name": "approved",
          "type": "address"
        },
        {
          "indexed": true,
          "internalType": "uint256",
          "name": "tokenId",
          "type": "uint256"
        }
      ],
      "name": "Approval",
      "type": "event"
    },
    {
      "anonymous": false,
      "inputs": [
        {
          "indexed": true,
          "internalType": "address",
          "name": "owner",
          "type": "address"
        },
        {
          "indexed": true,
          "internalType": "address",
          "name": "operator",
          "type": "address"
        },
        {
          "indexed": false,
          "internalType": "bool",
          "name": "approved",
          "type": "bool"
        }
      ],
      "name": "ApprovalForAll",
      "type": "event"
    },
    {
      "anonymous": false,
      "inputs": [
        {
          "indexed": true,
          "internalType": "address",
          "name": "previousOwner",
          "type": "address"
        },
        {
          "indexed": true,
          "internalType": "address",
          "name": "newOwner",
          "type": "address"
        }
      ],
      "name": "OwnershipTransferred",
      "type": "event"
    },
    {
      "anonymous": false,
      "inputs": [
        {
          "indexed": false,
          "internalType": "uint256",
          "name": "id",
          "type": "uint256"
        },
        {
          "indexed": true,
          "internalType": "address",
          "name": "owner",
          "type": "address"
        },
        {
          "indexed": false,
          "internalType": "uint256",
          "name": "cost",
          "type": "uint256"
        },
        {
          "indexed": false,
          "internalType": "string",
          "name": "metadataURI",
          "type": "string"
        },
        {
          "indexed": false,
          "internalType": "uint256",
          "name": "timestamp",
          "type": "uint256"
        }
      ],
      "name": "Sale",
      "type": "event"
    },
    {
      "anonymous": false,
      "inputs": [
        {
          "indexed": true,
          "internalType": "address",
          "name": "from",
          "type": "address"
        },
        {
          "indexed": true,
          "internalType": "address",
          "name": "to",
          "type": "address"
        },
        {
          "indexed": true,
          "internalType": "uint256",
          "name": "tokenId",
          "type": "uint256"
        }
      ],
      "name": "Transfer",
      "type": "event"
    },
    {
      "inputs": [
        {
          "internalType": "address",
          "name": "to",
          "type": "address"
        },
        {
          "internalType": "uint256",
          "name": "tokenId",
          "type": "uint256"
        }
      ],
      "name": "approve",
      "outputs": [],
      "stateMutability": "nonpayable",
      "type": "function"
    },
    {
      "inputs": [],
      "name": "artist",
      "outputs": [
        {
          "internalType": "address",
          "name": "",
          "type": "address"
        }
      ],
      "stateMutability": "view",
      "type": "function",
      "constant": true
    },
    {
      "inputs": [
        {
          "internalType": "address",
          "name": "owner",
          "type": "address"
        }
      ],
      "name": "balanceOf",
      "outputs": [
        {
          "internalType": "uint256",
          "name": "",
          "type": "uint256"
        }
      ],
      "stateMutability": "view",
      "type": "function",
      "constant": true
    },
    {
      "inputs": [],
      "name": "cost",
      "outputs": [
        {
          "internalType": "uint256",
          "name": "",
          "type": "uint256"
        }
      ],
      "stateMutability": "view",
      "type": "function",
      "constant": true
    },
    {
      "inputs": [
        {
          "internalType": "uint256",
          "name": "tokenId",
          "type": "uint256"
        }
      ],
      "name": "getApproved",
      "outputs": [
        {
          "internalType": "address",
          "name": "",
          "type": "address"
        }
      ],
      "stateMutability": "view",
      "type": "function",
      "constant": true
    },
    {
      "inputs": [
        {
          "internalType": "uint256",
          "name": "",
          "type": "uint256"
        }
      ],
      "name": "holderOf",
      "outputs": [
        {
          "internalType": "address",
          "name": "",
          "type": "address"
        }
      ],
      "stateMutability": "view",
      "type": "function",
      "constant": true
    },
    {
      "inputs": [
        {
          "internalType": "address",
          "name": "owner",
          "type": "address"
        },
        {
          "internalType": "address",
          "name": "operator",
          "type": "address"
        }
      ],
      "name": "isApprovedForAll",
      "outputs": [
        {
          "internalType": "bool",
          "name": "",
          "type": "bool"
        }
      ],
      "stateMutability": "view",
      "type": "function",
      "constant": true
    },
    {
      "inputs": [],
      "name": "name",
      "outputs": [
        {
          "internalType": "string",
          "name": "",
          "type": "string"
        }
      ],
      "stateMutability": "view",
      "type": "function",
      "constant": true
    },
    {
      "inputs": [],
      "name": "owner",
      "outputs": [
        {
          "internalType": "address",
          "name": "",
          "type": "address"
        }
      ],
      "stateMutability": "view",
      "type": "function",
      "constant": true
    },
    {
      "inputs": [
        {
          "internalType": "uint256",
          "name": "tokenId",
          "type": "uint256"
        }
      ],
      "name": "ownerOf",
      "outputs": [
        {
          "internalType": "address",
          "name": "",
          "type": "address"
        }
      ],
      "stateMutability": "view",
      "type": "function",
      "constant": true
    },
    {
      "inputs": [],
      "name": "renounceOwnership",
      "outputs": [],
      "stateMutability": "nonpayable",
      "type": "function"
    },
    {
      "inputs": [],
      "name": "royalityFee",
      "outputs": [
        {
          "internalType": "uint256",
          "name": "",
          "type": "uint256"
        }
      ],
      "stateMutability": "view",
      "type": "function",
      "constant": true
    },
    {
      "inputs": [
        {
          "internalType": "address",
          "name": "from",
          "type": "address"
        },
        {
          "internalType": "address",
          "name": "to",
          "type": "address"
        },
        {
          "internalType": "uint256",
          "name": "tokenId",
          "type": "uint256"
        }
      ],
      "name": "safeTransferFrom",
      "outputs": [],
      "stateMutability": "payable",
      "type": "function",
      "payable": true
    },
    {
      "inputs": [
        {
          "internalType": "address",
          "name": "from",
          "type": "address"
        },
        {
          "internalType": "address",
          "name": "to",
          "type": "address"
        },
        {
          "internalType": "uint256",
          "name": "tokenId",
          "type": "uint256"
        },
        {
          "internalType": "bytes",
          "name": "_data",
          "type": "bytes"
        }
      ],
      "name": "safeTransferFrom",
      "outputs": [],
      "stateMutability": "payable",
      "type": "function",
      "payable": true
    },
    {
      "inputs": [
        {
          "internalType": "address",
          "name": "operator",
          "type": "address"
        },
        {
          "internalType": "bool",
          "name": "approved",
          "type": "bool"
        }
      ],
      "name": "setApprovalForAll",
      "outputs": [],
      "stateMutability": "nonpayable",
      "type": "function"
    },
    {
      "inputs": [],
      "name": "supply",
      "outputs": [
        {
          "internalType": "uint256",
          "name": "",
          "type": "uint256"
        }
      ],
      "stateMutability": "view",
      "type": "function",
      "constant": true
    },
    {
      "inputs": [
        {
          "internalType": "bytes4",
          "name": "interfaceId",
          "type": "bytes4"
        }
      ],
      "name": "supportsInterface",
      "outputs": [
        {
          "internalType": "bool",
          "name": "",
          "type": "bool"
        }
      ],
      "stateMutability": "view",
      "type": "function",
      "constant": true
    },
    {
      "inputs": [],
      "name": "symbol",
      "outputs": [
        {
          "internalType": "string",
          "name": "",
          "type": "string"
        }
      ],
      "stateMutability": "view",
      "type": "function",
      "constant": true
    },
    {
      "inputs": [
        {
          "internalType": "uint256",
          "name": "index",
          "type": "uint256"
        }
      ],
      "name": "tokenByIndex",
      "outputs": [
        {
          "internalType": "uint256",
          "name": "",
          "type": "uint256"
        }
      ],
      "stateMutability": "view",
      "type": "function",
      "constant": true
    },
    {
      "inputs": [
        {
          "internalType": "address",
          "name": "owner",
          "type": "address"
        },
        {
          "internalType": "uint256",
          "name": "index",
          "type": "uint256"
        }
      ],
      "name": "tokenOfOwnerByIndex",
      "outputs": [
        {
          "internalType": "uint256",
          "name": "",
          "type": "uint256"
        }
      ],
      "stateMutability": "view",
      "type": "function",
      "constant": true
    },
    {
      "inputs": [
        {
          "internalType": "uint256",
          "name": "tokenId",
          "type": "uint256"
        }
      ],
      "name": "tokenURI",
      "outputs": [
        {
          "internalType": "string",
          "name": "",
          "type": "string"
        }
      ],
      "stateMutability": "view",
      "type": "function",
      "constant": true
    },
    {
      "inputs": [],
      "name": "totalSupply",
      "outputs": [
        {
          "internalType": "uint256",
          "name": "",
          "type": "uint256"
        }
      ],
      "stateMutability": "view",
      "type": "function",
      "constant": true
    },
    {
      "inputs": [],
      "name": "totalTx",
      "outputs": [
        {
          "internalType": "uint256",
          "name": "",
          "type": "uint256"
        }
      ],
      "stateMutability": "view",
      "type": "function",
      "constant": true
    },
    {
      "inputs": [
        {
          "internalType": "address",
          "name": "from",
          "type": "address"
        },
        {
          "internalType": "address",
          "name": "to",
          "type": "address"
        },
        {
          "internalType": "uint256",
          "name": "tokenId",
          "type": "uint256"
        }
      ],
      "name": "transferFrom",
      "outputs": [],
      "stateMutability": "payable",
      "type": "function",
      "payable": true
    },
    {
      "inputs": [
        {
          "internalType": "address",
          "name": "newOwner",
          "type": "address"
        }
      ],
      "name": "transferOwnership",
      "outputs": [],
      "stateMutability": "nonpayable",
      "type": "function"
    },
    {
      "inputs": [
        {
          "internalType": "string",
          "name": "title",
          "type": "string"
        },
        {
          "internalType": "string",
          "name": "description",
          "type": "string"
        },
        {
          "internalType": "string",
          "name": "metadataURI",
          "type": "string"
        },
        {
          "internalType": "uint256",
          "name": "salesPrice",
          "type": "uint256"
        }
      ],
      "name": "payToMint",
      "outputs": [],
      "stateMutability": "payable",
      "type": "function",
      "payable": true
    },
    {
      "inputs": [
        {
          "internalType": "uint256",
          "name": "id",
          "type": "uint256"
        }
      ],
      "name": "payToBuy",
      "outputs": [],
      "stateMutability": "payable",
      "type": "function",
      "payable": true
    },
    {
      "inputs": [
        {
          "internalType": "uint256",
          "name": "id",
          "type": "uint256"
        },
        {
          "internalType": "uint256",
          "name": "newPrice",
          "type": "uint256"
        }
      ],
      "name": "changePrice",
      "outputs": [
        {
          "internalType": "bool",
          "name": "",
          "type": "bool"
        }
      ],
      "stateMutability": "nonpayable",
      "type": "function"
    },
    {
      "inputs": [],
      "name": "getAllNFTs",
      "outputs": [
        {
          "components": [
            {
              "internalType": "uint256",
              "name": "id",
              "type": "uint256"
            },
            {
              "internalType": "address",
              "name": "owner",
              "type": "address"
            },
            {
              "internalType": "uint256",
              "name": "cost",
              "type": "uint256"
            },
            {
              "internalType": "string",
              "name": "title",
              "type": "string"
            },
            {
              "internalType": "string",
              "name": "description",
              "type": "string"
            },
            {
              "internalType": "string",
              "name": "metadataURI",
              "type": "string"
            },
            {
              "internalType": "uint256",
              "name": "timestamp",
              "type": "uint256"
            }
          ],
          "internalType": "struct TimelessNFT.TransactionStruct[]",
          "name": "",
          "type": "tuple[]"
        }
      ],
      "stateMutability": "view",
      "type": "function",
      "constant": true
    },
    {
      "inputs": [
        {
          "internalType": "uint256",
          "name": "id",
          "type": "uint256"
        }
      ],
      "name": "getNFT",
      "outputs": [
        {
          "components": [
            {
              "internalType": "uint256",
              "name": "id",
              "type": "uint256"
            },
            {
              "internalType": "address",
              "name": "owner",
              "type": "address"
            },
            {
              "internalType": "uint256",
              "name": "cost",
              "type": "uint256"
            },
            {
              "internalType": "string",
              "name": "title",
              "type": "string"
            },
            {
              "internalType": "string",
              "name": "description",
              "type": "string"
            },
            {
              "internalType": "string",
              "name": "metadataURI",
              "type": "string"
            },
            {
              "internalType": "uint256",
              "name": "timestamp",
              "type": "uint256"
            }
          ],
          "internalType": "struct TimelessNFT.TransactionStruct",
          "name": "",
          "type": "tuple"
        }
      ],
      "stateMutability": "view",
      "type": "function",
      "constant": true
    },
    {
      "inputs": [],
      "name": "getAllTransactions",
      "outputs": [
        {
          "components": [
            {
              "internalType": "uint256",
              "name": "id",
              "type": "uint256"
            },
            {
              "internalType": "address",
              "name": "owner",
              "type": "address"
            },
            {
              "internalType": "uint256",
              "name": "cost",
              "type": "uint256"
            },
            {
              "internalType": "string",
              "name": "title",
              "type": "string"
            },
            {
              "internalType": "string",
              "name": "description",
              "type": "string"
            },
            {
              "internalType": "string",
              "name": "metadataURI",
              "type": "string"
            },
            {
              "internalType": "uint256",
              "name": "timestamp",
              "type": "uint256"
            }
          ],
          "internalType": "struct TimelessNFT.TransactionStruct[]",
          "name": "",
          "type": "tuple[]"
        }
      ],
      "stateMutability": "view",
      "type": "function",
      "constant": true
    }
  ],
  "bytecode": "0x60806040526000600f556000601055662386f26fc100006011553480156200002657600080fd5b506040516200598c3803806200598c83398181016040528101906200004c9190620004af565b8383816000908051906020019062000066929190620001c2565b5080600190805190602001906200007f929190620001c2565b505050620000a262000096620000f460201b60201c565b620000fc60201b60201c565b81600e8190555080600d60006101000a81548173ffffffffffffffffffffffffffffffffffffffff021916908373ffffffffffffffffffffffffffffffffffffffff16021790555050505050620005c4565b600033905090565b6000600a60009054906101000a900473ffffffffffffffffffffffffffffffffffffffff16905081600a60006101000a81548173ffffffffffffffffffffffffffffffffffffffff021916908373ffffffffffffffffffffffffffffffffffffffff1602179055508173ffffffffffffffffffffffffffffffffffffffff168173ffffffffffffffffffffffffffffffffffffffff167f8be0079c531659141344cd1fd0a4f28419497f9722a3daafe3b4186f6b6457e060405160405180910390a35050565b828054620001d0906200058e565b90600052602060002090601f016020900481019282620001f4576000855562000240565b82601f106200020f57805160ff191683800117855562000240565b8280016001018555821562000240579182015b828111156200023f57825182559160200191906001019062000222565b5b5090506200024f919062000253565b5090565b5b808211156200026e57600081600090555060010162000254565b5090565b6000604051905090565b600080fd5b600080fd5b600080fd5b600080fd5b6000601f19601f8301169050919050565b7f4e487b7100000000000000000000000000000000000000000000000000000000600052604160045260246000fd5b620002db8262000290565b810181811067ffffffffffffffff82111715620002fd57620002fc620002a1565b5b80604052505050565b60006200031262000272565b9050620003208282620002d0565b919050565b600067ffffffffffffffff821115620003435762000342620002a1565b5b6200034e8262000290565b9050602081019050919050565b60005b838110156200037b5780820151818401526020810190506200035e565b838111156200038b576000848401525b50505050565b6000620003a8620003a28462000325565b62000306565b905082815260208101848484011115620003c757620003c66200028b565b5b620003d48482856200035b565b509392505050565b600082601f830112620003f457620003f362000286565b5b81516200040684826020860162000391565b91505092915050565b6000819050919050565b62000424816200040f565b81146200043057600080fd5b50565b600081519050620004448162000419565b92915050565b600073ffffffffffffffffffffffffffffffffffffffff82169050919050565b600062000477826200044a565b9050919050565b62000489816200046a565b81146200049557600080fd5b50565b600081519050620004a9816200047e565b92915050565b60008060008060808587031215620004cc57620004cb6200027c565b5b600085015167ffffffffffffffff811115620004ed57620004ec62000281565b5b620004fb87828801620003dc565b945050602085015167ffffffffffffffff8111156200051f576200051e62000281565b5b6200052d87828801620003dc565b9350506040620005408782880162000433565b9250506060620005538782880162000498565b91505092959194509250565b7f4e487b7100000000000000000000000000000000000000000000000000000000600052602260045260246000fd5b60006002820490506001821680620005a757607f821691505b60208210811415620005be57620005bd6200055f565b5b50919050565b6153b880620005d46000396000f3fe6080604052600436106101d85760003560e01c80636352211e11610102578063a22cb46511610095578063dbacc23711610064578063dbacc237146106a5578063e0391b09146106e2578063e985e9c51461070d578063f2fde38b1461074a576101d8565b8063a22cb465146105e6578063b3de019c1461060f578063b88d4fde1461064c578063c87b56dd14610668576101d8565b8063799c0c1e116100d1578063799c0c1e146105585780638da5cb5b1461057457806395d89b411461059f5780639ba4b017146105ca576101d8565b80636352211e1461049c57806370a08231146104d9578063715018a6146105165780637220cf391461052d576101d8565b806323b872dd1161017a57806342842e0e1161014957806342842e0e146103db57806343bc1612146103f75780634f6ccce714610422578063576f7ea71461045f576101d8565b806323b872dd1461032c57806327506f53146103485780632f745c5914610373578063326bb4ad146103b0576101d8565b8063081812fc116101b6578063081812fc14610270578063095ea7b3146102ad57806313faede6146102d657806318160ddd14610301576101d8565b806301ffc9a7146101dd578063047fc9aa1461021a57806306fdde0314610245575b600080fd5b3480156101e957600080fd5b5061020460048036038101906101ff9190613820565b610773565b6040516102119190613868565b60405180910390f35b34801561022657600080fd5b5061022f6107ed565b60405161023c919061389c565b60405180910390f35b34801561025157600080fd5b5061025a6107f3565b6040516102679190613950565b60405180910390f35b34801561027c57600080fd5b506102976004803603810190610292919061399e565b610885565b6040516102a49190613a0c565b60405180910390f35b3480156102b957600080fd5b506102d460048036038101906102cf9190613a53565b61090a565b005b3480156102e257600080fd5b506102eb610a22565b6040516102f8919061389c565b60405180910390f35b34801561030d57600080fd5b50610316610a28565b604051610323919061389c565b60405180910390f35b61034660048036038101906103419190613a93565b610a35565b005b34801561035457600080fd5b5061035d610a95565b60405161036a9190613cba565b60405180910390f35b34801561037f57600080fd5b5061039a60048036038101906103959190613a53565b610d1e565b6040516103a7919061389c565b60405180910390f35b3480156103bc57600080fd5b506103c5610dc3565b6040516103d2919061389c565b60405180910390f35b6103f560048036038101906103f09190613a93565b610dc9565b005b34801561040357600080fd5b5061040c610de9565b6040516104199190613a0c565b60405180910390f35b34801561042e57600080fd5b506104496004803603810190610444919061399e565b610e0f565b604051610456919061389c565b60405180910390f35b34801561046b57600080fd5b506104866004803603810190610481919061399e565b610e80565b6040516104939190613d86565b60405180910390f35b3480156104a857600080fd5b506104c360048036038101906104be919061399e565b6110f2565b6040516104d09190613a0c565b60405180910390f35b3480156104e557600080fd5b5061050060048036038101906104fb9190613da8565b6111a4565b60405161050d919061389c565b60405180910390f35b34801561052257600080fd5b5061052b61125c565b005b34801561053957600080fd5b506105426112e4565b60405161054f919061389c565b60405180910390f35b610572600480360381019061056d9190613f0a565b6112ea565b005b34801561058057600080fd5b506105896116bd565b6040516105969190613a0c565b60405180910390f35b3480156105ab57600080fd5b506105b46116e7565b6040516105c19190613950565b60405180910390f35b6105e460048036038101906105df919061399e565b611779565b005b3480156105f257600080fd5b5061060d60048036038101906106089190613ff1565b611dce565b005b34801561061b57600080fd5b5061063660048036038101906106319190614031565b611de4565b6040516106439190613868565b60405180910390f35b61066660048036038101906106619190614112565b611f27565b005b34801561067457600080fd5b5061068f600480360381019061068a919061399e565b611f89565b60405161069c9190613950565b60405180910390f35b3480156106b157600080fd5b506106cc60048036038101906106c7919061399e565b612030565b6040516106d99190613a0c565b60405180910390f35b3480156106ee57600080fd5b506106f7612063565b6040516107049190613cba565b60405180910390f35b34801561071957600080fd5b50610734600480360381019061072f9190614195565b6122ec565b6040516107419190613868565b60405180910390f35b34801561075657600080fd5b50610771600480360381019061076c9190613da8565b612380565b005b60007f780e9d63000000000000000000000000000000000000000000000000000000007bffffffffffffffffffffffffffffffffffffffffffffffffffffffff1916827bffffffffffffffffffffffffffffffffffffffffffffffffffffffff191614806107e657506107e582612478565b5b9050919050565b600f5481565b60606000805461080290614204565b80601f016020809104026020016040519081016040528092919081815260200182805461082e90614204565b801561087b5780601f106108505761010080835404028352916020019161087b565b820191906000526020600020905b81548152906001019060200180831161085e57829003601f168201915b5050505050905090565b60006108908261255a565b6108cf576040517f08c379a00000000000000000000000000000000000000000000000000000000081526004016108c6906142a8565b60405180910390fd5b6004600083815260200190815260200160002060009054906101000a900473ffffffffffffffffffffffffffffffffffffffff169050919050565b6000610915826110f2565b90508073ffffffffffffffffffffffffffffffffffffffff168373ffffffffffffffffffffffffffffffffffffffff161415610986576040517f08c379a000000000000000000000000000000000000000000000000000000000815260040161097d9061433a565b60405180910390fd5b8073ffffffffffffffffffffffffffffffffffffffff166109a56125c6565b73ffffffffffffffffffffffffffffffffffffffff1614806109d457506109d3816109ce6125c6565b6122ec565b5b610a13576040517f08c379a0000000000000000000000000000000000000000000000000000000008152600401610a0a906143cc565b60405180910390fd5b610a1d83836125ce565b505050565b60115481565b6000600880549050905090565b610a46610a406125c6565b82612687565b610a85576040517f08c379a0000000000000000000000000000000000000000000000000000000008152600401610a7c9061445e565b60405180910390fd5b610a90838383612765565b505050565b60606012805480602002602001604051908101604052809291908181526020016000905b82821015610d1557838290600052602060002090600702016040518060e0016040529081600082015481526020016001820160009054906101000a900473ffffffffffffffffffffffffffffffffffffffff1673ffffffffffffffffffffffffffffffffffffffff1673ffffffffffffffffffffffffffffffffffffffff16815260200160028201548152602001600382018054610b5690614204565b80601f0160208091040260200160405190810160405280929190818152602001828054610b8290614204565b8015610bcf5780601f10610ba457610100808354040283529160200191610bcf565b820191906000526020600020905b815481529060010190602001808311610bb257829003601f168201915b50505050508152602001600482018054610be890614204565b80601f0160208091040260200160405190810160405280929190818152602001828054610c1490614204565b8015610c615780601f10610c3657610100808354040283529160200191610c61565b820191906000526020600020905b815481529060010190602001808311610c4457829003601f168201915b50505050508152602001600582018054610c7a90614204565b80601f0160208091040260200160405190810160405280929190818152602001828054610ca690614204565b8015610cf35780601f10610cc857610100808354040283529160200191610cf3565b820191906000526020600020905b815481529060010190602001808311610cd657829003601f168201915b5050505050815260200160068201548152505081526020019060010190610ab9565b50505050905090565b6000610d29836111a4565b8210610d6a576040517f08c379a0000000000000000000000000000000000000000000000000000000008152600401610d61906144f0565b60405180910390fd5b600660008473ffffffffffffffffffffffffffffffffffffffff1673ffffffffffffffffffffffffffffffffffffffff168152602001908152602001600020600083815260200190815260200160002054905092915050565b600e5481565b610de483838360405180602001604052806000815250611f27565b505050565b600d60009054906101000a900473ffffffffffffffffffffffffffffffffffffffff1681565b6000610e19610a28565b8210610e5a576040517f08c379a0000000000000000000000000000000000000000000000000000000008152600401610e5190614582565b60405180910390fd5b60088281548110610e6e57610e6d6145a2565b5b90600052602060002001549050919050565b610e886136be565b6013600183610e979190614600565b81548110610ea857610ea76145a2565b5b90600052602060002090600702016040518060e0016040529081600082015481526020016001820160009054906101000a900473ffffffffffffffffffffffffffffffffffffffff1673ffffffffffffffffffffffffffffffffffffffff1673ffffffffffffffffffffffffffffffffffffffff16815260200160028201548152602001600382018054610f3b90614204565b80601f0160208091040260200160405190810160405280929190818152602001828054610f6790614204565b8015610fb45780601f10610f8957610100808354040283529160200191610fb4565b820191906000526020600020905b815481529060010190602001808311610f9757829003601f168201915b50505050508152602001600482018054610fcd90614204565b80601f0160208091040260200160405190810160405280929190818152602001828054610ff990614204565b80156110465780601f1061101b57610100808354040283529160200191611046565b820191906000526020600020905b81548152906001019060200180831161102957829003601f168201915b5050505050815260200160058201805461105f90614204565b80601f016020809104026020016040519081016040528092919081815260200182805461108b90614204565b80156110d85780601f106110ad576101008083540402835291602001916110d8565b820191906000526020600020905b8154815290600101906020018083116110bb57829003601f168201915b505050505081526020016006820154815250509050919050565b6000806002600084815260200190815260200160002060009054906101000a900473ffffffffffffffffffffffffffffffffffffffff169050600073ffffffffffffffffffffffffffffffffffffffff168173ffffffffffffffffffffffffffffffffffffffff16141561119b576040517f08c379a0000000000000000000000000000000000000000000000000000000008152600401611192906146a6565b60405180910390fd5b80915050919050565b60008073ffffffffffffffffffffffffffffffffffffffff168273ffffffffffffffffffffffffffffffffffffffff161415611215576040517f08c379a000000000000000000000000000000000000000000000000000000000815260040161120c90614738565b60405180910390fd5b600360008373ffffffffffffffffffffffffffffffffffffffff1673ffffffffffffffffffffffffffffffffffffffff168152602001908152602001600020549050919050565b6112646125c6565b73ffffffffffffffffffffffffffffffffffffffff166112826116bd565b73ffffffffffffffffffffffffffffffffffffffff16146112d8576040517f08c379a00000000000000000000000000000000000000000000000000000000081526004016112cf906147a4565b60405180910390fd5b6112e260006129c1565b565b60105481565b60115434101561132f576040517f08c379a000000000000000000000000000000000000000000000000000000000815260040161132690614810565b60405180910390fd5b6000600b83604051611341919061486c565b908152602001604051809103902060009054906101000a900460ff1660ff16146113a0576040517f08c379a0000000000000000000000000000000000000000000000000000000008152600401611397906148cf565b60405180910390fd5b6113a86116bd565b73ffffffffffffffffffffffffffffffffffffffff163373ffffffffffffffffffffffffffffffffffffffff161415611416576040517f08c379a000000000000000000000000000000000000000000000000000000000815260040161140d9061493b565b60405180910390fd5b60006064600e5434611428919061495b565b61143291906149e4565b9050611460600d60009054906101000a900473ffffffffffffffffffffffffffffffffffffffff1682612a87565b61147c61146b6116bd565b82346114779190614600565b612a87565b600f600081548092919061148f90614a15565b919050555060136040518060e00160405280600f5481526020013373ffffffffffffffffffffffffffffffffffffffff1681526020018481526020018781526020018681526020018581526020014281525090806001815401808255809150506001900390600052602060002090600702016000909190919091506000820151816000015560208201518160010160006101000a81548173ffffffffffffffffffffffffffffffffffffffff021916908373ffffffffffffffffffffffffffffffffffffffff160217905550604082015181600201556060820151816003019080519060200190611581929190613711565b50608082015181600401908051906020019061159e929190613711565b5060a08201518160050190805190602001906115bb929190613711565b5060c0820151816006015550503373ffffffffffffffffffffffffffffffffffffffff167fb9508407a6eccb191d8da3286f4173697cf95604e9ea192fe5ab7c862b5221f6600f543486426040516116169493929190614a5e565b60405180910390a261162a33600f54612b02565b6001600b8460405161163c919061486c565b908152602001604051809103902060006101000a81548160ff021916908360ff16021790555033600c6000600f54815260200190815260200160002060006101000a81548173ffffffffffffffffffffffffffffffffffffffff021916908373ffffffffffffffffffffffffffffffffffffffff1602179055505050505050565b6000600a60009054906101000a900473ffffffffffffffffffffffffffffffffffffffff16905090565b6060600180546116f690614204565b80601f016020809104026020016040519081016040528092919081815260200182805461172290614204565b801561176f5780601f106117445761010080835404028352916020019161176f565b820191906000526020600020905b81548152906001019060200180831161175257829003601f168201915b5050505050905090565b60136001826117889190614600565b81548110611799576117986145a2565b5b9060005260206000209060070201600201543410156117ed576040517f08c379a00000000000000000000000000000000000000000000000000000000081526004016117e490614af6565b60405180910390fd5b60136001826117fc9190614600565b8154811061180d5761180c6145a2565b5b906000526020600020906007020160010160009054906101000a900473ffffffffffffffffffffffffffffffffffffffff1673ffffffffffffffffffffffffffffffffffffffff163373ffffffffffffffffffffffffffffffffffffffff1614156118ad576040517f08c379a00000000000000000000000000000000000000000000000000000000081526004016118a490614b62565b60405180910390fd5b60006064600e54346118bf919061495b565b6118c991906149e4565b90506118f7600d60009054906101000a900473ffffffffffffffffffffffffffffffffffffffff1682612a87565b61195d60136001846119099190614600565b8154811061191a576119196145a2565b5b906000526020600020906007020160010160009054906101000a900473ffffffffffffffffffffffffffffffffffffffff1682346119589190614600565b612a87565b6010600081548092919061197090614a15565b919050555060126040518060e0016040528060105481526020013373ffffffffffffffffffffffffffffffffffffffff16815260200134815260200160136001866119bb9190614600565b815481106119cc576119cb6145a2565b5b906000526020600020906007020160030180546119e890614204565b80601f0160208091040260200160405190810160405280929190818152602001828054611a1490614204565b8015611a615780601f10611a3657610100808354040283529160200191611a61565b820191906000526020600020905b815481529060010190602001808311611a4457829003601f168201915b505050505081526020016013600186611a7a9190614600565b81548110611a8b57611a8a6145a2565b5b90600052602060002090600702016004018054611aa790614204565b80601f0160208091040260200160405190810160405280929190818152602001828054611ad390614204565b8015611b205780601f10611af557610100808354040283529160200191611b20565b820191906000526020600020905b815481529060010190602001808311611b0357829003601f168201915b505050505081526020016013600186611b399190614600565b81548110611b4a57611b496145a2565b5b90600052602060002090600702016005018054611b6690614204565b80601f0160208091040260200160405190810160405280929190818152602001828054611b9290614204565b8015611bdf5780601f10611bb457610100808354040283529160200191611bdf565b820191906000526020600020905b815481529060010190602001808311611bc257829003601f168201915b505050505081526020014281525090806001815401808255809150506001900390600052602060002090600702016000909190919091506000820151816000015560208201518160010160006101000a81548173ffffffffffffffffffffffffffffffffffffffff021916908373ffffffffffffffffffffffffffffffffffffffff160217905550604082015181600201556060820151816003019080519060200190611c8d929190613711565b506080820151816004019080519060200190611caa929190613711565b5060a0820151816005019080519060200190611cc7929190613711565b5060c0820151816006015550503373ffffffffffffffffffffffffffffffffffffffff167fb9508407a6eccb191d8da3286f4173697cf95604e9ea192fe5ab7c862b5221f6601054346013600187611d1f9190614600565b81548110611d3057611d2f6145a2565b5b906000526020600020906007020160050142604051611d529493929190614c17565b60405180910390a2336013600184611d6a9190614600565b81548110611d7b57611d7a6145a2565b5b906000526020600020906007020160010160006101000a81548173ffffffffffffffffffffffffffffffffffffffff021916908373ffffffffffffffffffffffffffffffffffffffff1602179055505050565b611de0611dd96125c6565b8383612b20565b5050565b6000808211611e28576040517f08c379a0000000000000000000000000000000000000000000000000000000008152600401611e1f90614caf565b60405180910390fd5b6013600184611e379190614600565b81548110611e4857611e476145a2565b5b906000526020600020906007020160010160009054906101000a900473ffffffffffffffffffffffffffffffffffffffff1673ffffffffffffffffffffffffffffffffffffffff163373ffffffffffffffffffffffffffffffffffffffff1614611ee7576040517f08c379a0000000000000000000000000000000000000000000000000000000008152600401611ede90614b62565b60405180910390fd5b816013600185611ef79190614600565b81548110611f0857611f076145a2565b5b9060005260206000209060070201600201819055506001905092915050565b611f38611f326125c6565b83612687565b611f77576040517f08c379a0000000000000000000000000000000000000000000000000000000008152600401611f6e9061445e565b60405180910390fd5b611f8384848484612c8d565b50505050565b6060611f948261255a565b611fd3576040517f08c379a0000000000000000000000000000000000000000000000000000000008152600401611fca90614d41565b60405180910390fd5b6000611fdd612ce9565b90506000815111611ffd5760405180602001604052806000815250612028565b8061200784612d00565b604051602001612018929190614d61565b6040516020818303038152906040525b915050919050565b600c6020528060005260406000206000915054906101000a900473ffffffffffffffffffffffffffffffffffffffff1681565b60606013805480602002602001604051908101604052809291908181526020016000905b828210156122e357838290600052602060002090600702016040518060e0016040529081600082015481526020016001820160009054906101000a900473ffffffffffffffffffffffffffffffffffffffff1673ffffffffffffffffffffffffffffffffffffffff1673ffffffffffffffffffffffffffffffffffffffff1681526020016002820154815260200160038201805461212490614204565b80601f016020809104026020016040519081016040528092919081815260200182805461215090614204565b801561219d5780601f106121725761010080835404028352916020019161219d565b820191906000526020600020905b81548152906001019060200180831161218057829003601f168201915b505050505081526020016004820180546121b690614204565b80601f01602080910402602001604051908101604052809291908181526020018280546121e290614204565b801561222f5780601f106122045761010080835404028352916020019161222f565b820191906000526020600020905b81548152906001019060200180831161221257829003601f168201915b5050505050815260200160058201805461224890614204565b80601f016020809104026020016040519081016040528092919081815260200182805461227490614204565b80156122c15780601f10612296576101008083540402835291602001916122c1565b820191906000526020600020905b8154815290600101906020018083116122a457829003601f168201915b5050505050815260200160068201548152505081526020019060010190612087565b50505050905090565b6000600560008473ffffffffffffffffffffffffffffffffffffffff1673ffffffffffffffffffffffffffffffffffffffff16815260200190815260200160002060008373ffffffffffffffffffffffffffffffffffffffff1673ffffffffffffffffffffffffffffffffffffffff16815260200190815260200160002060009054906101000a900460ff16905092915050565b6123886125c6565b73ffffffffffffffffffffffffffffffffffffffff166123a66116bd565b73ffffffffffffffffffffffffffffffffffffffff16146123fc576040517f08c379a00000000000000000000000000000000000000000000000000000000081526004016123f3906147a4565b60405180910390fd5b600073ffffffffffffffffffffffffffffffffffffffff168173ffffffffffffffffffffffffffffffffffffffff16141561246c576040517f08c379a000000000000000000000000000000000000000000000000000000000815260040161246390614df7565b60405180910390fd5b612475816129c1565b50565b60007f80ac58cd000000000000000000000000000000000000000000000000000000007bffffffffffffffffffffffffffffffffffffffffffffffffffffffff1916827bffffffffffffffffffffffffffffffffffffffffffffffffffffffff1916148061254357507f5b5e139f000000000000000000000000000000000000000000000000000000007bffffffffffffffffffffffffffffffffffffffffffffffffffffffff1916827bffffffffffffffffffffffffffffffffffffffffffffffffffffffff1916145b80612553575061255282612e61565b5b9050919050565b60008073ffffffffffffffffffffffffffffffffffffffff166002600084815260200190815260200160002060009054906101000a900473ffffffffffffffffffffffffffffffffffffffff1673ffffffffffffffffffffffffffffffffffffffff1614159050919050565b600033905090565b816004600083815260200190815260200160002060006101000a81548173ffffffffffffffffffffffffffffffffffffffff021916908373ffffffffffffffffffffffffffffffffffffffff160217905550808273ffffffffffffffffffffffffffffffffffffffff16612641836110f2565b73ffffffffffffffffffffffffffffffffffffffff167f8c5be1e5ebec7d5bd14f71427d1e84f3dd0314c0f7b2291e5b200ac8c7c3b92560405160405180910390a45050565b60006126928261255a565b6126d1576040517f08c379a00000000000000000000000000000000000000000000000000000000081526004016126c890614e89565b60405180910390fd5b60006126dc836110f2565b90508073ffffffffffffffffffffffffffffffffffffffff168473ffffffffffffffffffffffffffffffffffffffff16148061274b57508373ffffffffffffffffffffffffffffffffffffffff1661273384610885565b73ffffffffffffffffffffffffffffffffffffffff16145b8061275c575061275b81856122ec565b5b91505092915050565b8273ffffffffffffffffffffffffffffffffffffffff16612785826110f2565b73ffffffffffffffffffffffffffffffffffffffff16146127db576040517f08c379a00000000000000000000000000000000000000000000000000000000081526004016127d290614f1b565b60405180910390fd5b600073ffffffffffffffffffffffffffffffffffffffff168273ffffffffffffffffffffffffffffffffffffffff16141561284b576040517f08c379a000000000000000000000000000000000000000000000000000000000815260040161284290614fad565b60405180910390fd5b612856838383612ecb565b6128616000826125ce565b6001600360008573ffffffffffffffffffffffffffffffffffffffff1673ffffffffffffffffffffffffffffffffffffffff16815260200190815260200160002060008282546128b19190614600565b925050819055506001600360008473ffffffffffffffffffffffffffffffffffffffff1673ffffffffffffffffffffffffffffffffffffffff16815260200190815260200160002060008282546129089190614fcd565b92505081905550816002600083815260200190815260200160002060006101000a81548173ffffffffffffffffffffffffffffffffffffffff021916908373ffffffffffffffffffffffffffffffffffffffff160217905550808273ffffffffffffffffffffffffffffffffffffffff168473ffffffffffffffffffffffffffffffffffffffff167fddf252ad1be2c89b69c2b068fc378daa952ba7f163c4a11628f55a4df523b3ef60405160405180910390a4505050565b6000600a60009054906101000a900473ffffffffffffffffffffffffffffffffffffffff16905081600a60006101000a81548173ffffffffffffffffffffffffffffffffffffffff021916908373ffffffffffffffffffffffffffffffffffffffff1602179055508173ffffffffffffffffffffffffffffffffffffffff168173ffffffffffffffffffffffffffffffffffffffff167f8be0079c531659141344cd1fd0a4f28419497f9722a3daafe3b4186f6b6457e060405160405180910390a35050565b60008273ffffffffffffffffffffffffffffffffffffffff1682604051612aad90615054565b60006040518083038185875af1925050503d8060008114612aea576040519150601f19603f3d011682016040523d82523d6000602084013e612aef565b606091505b5050905080612afd57600080fd5b505050565b612b1c828260405180602001604052806000815250612fdf565b5050565b8173ffffffffffffffffffffffffffffffffffffffff168373ffffffffffffffffffffffffffffffffffffffff161415612b8f576040517f08c379a0000000000000000000000000000000000000000000000000000000008152600401612b86906150b5565b60405180910390fd5b80600560008573ffffffffffffffffffffffffffffffffffffffff1673ffffffffffffffffffffffffffffffffffffffff16815260200190815260200160002060008473ffffffffffffffffffffffffffffffffffffffff1673ffffffffffffffffffffffffffffffffffffffff16815260200190815260200160002060006101000a81548160ff0219169083151502179055508173ffffffffffffffffffffffffffffffffffffffff168373ffffffffffffffffffffffffffffffffffffffff167f17307eab39ab6107e8899845ad3d59bd9653f200f220920489ca2b5937696c3183604051612c809190613868565b60405180910390a3505050565b612c98848484612765565b612ca48484848461303a565b612ce3576040517f08c379a0000000000000000000000000000000000000000000000000000000008152600401612cda90615147565b60405180910390fd5b50505050565b606060405180602001604052806000815250905090565b60606000821415612d48576040518060400160405280600181526020017f30000000000000000000000000000000000000000000000000000000000000008152509050612e5c565b600082905060005b60008214612d7a578080612d6390614a15565b915050600a82612d7391906149e4565b9150612d50565b60008167ffffffffffffffff811115612d9657612d95613ddf565b5b6040519080825280601f01601f191660200182016040528015612dc85781602001600182028036833780820191505090505b5090505b60008514612e5557600182612de19190614600565b9150600a85612df09190615167565b6030612dfc9190614fcd565b60f81b818381518110612e1257612e116145a2565b5b60200101907effffffffffffffffffffffffffffffffffffffffffffffffffffffffffffff1916908160001a905350600a85612e4e91906149e4565b9450612dcc565b8093505050505b919050565b60007f01ffc9a7000000000000000000000000000000000000000000000000000000007bffffffffffffffffffffffffffffffffffffffffffffffffffffffff1916827bffffffffffffffffffffffffffffffffffffffffffffffffffffffff1916149050919050565b612ed68383836131c2565b600073ffffffffffffffffffffffffffffffffffffffff168373ffffffffffffffffffffffffffffffffffffffff161415612f1957612f14816131c7565b612f58565b8173ffffffffffffffffffffffffffffffffffffffff168373ffffffffffffffffffffffffffffffffffffffff1614612f5757612f568382613210565b5b5b600073ffffffffffffffffffffffffffffffffffffffff168273ffffffffffffffffffffffffffffffffffffffff161415612f9b57612f968161337d565b612fda565b8273ffffffffffffffffffffffffffffffffffffffff168273ffffffffffffffffffffffffffffffffffffffff1614612fd957612fd8828261344e565b5b5b505050565b612fe983836134cd565b612ff6600084848461303a565b613035576040517f08c379a000000000000000000000000000000000000000000000000000000000815260040161302c90615147565b60405180910390fd5b505050565b600061305b8473ffffffffffffffffffffffffffffffffffffffff1661369b565b156131b5578373ffffffffffffffffffffffffffffffffffffffff1663150b7a026130846125c6565b8786866040518563ffffffff1660e01b81526004016130a694939291906151ed565b6020604051808303816000875af19250505080156130e257506040513d601f19601f820116820180604052508101906130df919061524e565b60015b613165573d8060008114613112576040519150601f19603f3d011682016040523d82523d6000602084013e613117565b606091505b5060008151141561315d576040517f08c379a000000000000000000000000000000000000000000000000000000000815260040161315490615147565b60405180910390fd5b805181602001fd5b63150b7a0260e01b7bffffffffffffffffffffffffffffffffffffffffffffffffffffffff1916817bffffffffffffffffffffffffffffffffffffffffffffffffffffffff1916149150506131ba565b600190505b949350505050565b505050565b6008805490506009600083815260200190815260200160002081905550600881908060018154018082558091505060019003906000526020600020016000909190919091505550565b6000600161321d846111a4565b6132279190614600565b905060006007600084815260200190815260200160002054905081811461330c576000600660008673ffffffffffffffffffffffffffffffffffffffff1673ffffffffffffffffffffffffffffffffffffffff168152602001908152602001600020600084815260200190815260200160002054905080600660008773ffffffffffffffffffffffffffffffffffffffff1673ffffffffffffffffffffffffffffffffffffffff168152602001908152602001600020600084815260200190815260200160002081905550816007600083815260200190815260200160002081905550505b6007600084815260200190815260200160002060009055600660008573ffffffffffffffffffffffffffffffffffffffff1673ffffffffffffffffffffffffffffffffffffffff16815260200190815260200160002060008381526020019081526020016000206000905550505050565b600060016008805490506133919190614600565b90506000600960008481526020019081526020016000205490506000600883815481106133c1576133c06145a2565b5b9060005260206000200154905080600883815481106133e3576133e26145a2565b5b9060005260206000200181905550816009600083815260200190815260200160002081905550600960008581526020019081526020016000206000905560088054806134325761343161527b565b5b6001900381819060005260206000200160009055905550505050565b6000613459836111a4565b905081600660008573ffffffffffffffffffffffffffffffffffffffff1673ffffffffffffffffffffffffffffffffffffffff168152602001908152602001600020600083815260200190815260200160002081905550806007600084815260200190815260200160002081905550505050565b600073ffffffffffffffffffffffffffffffffffffffff168273ffffffffffffffffffffffffffffffffffffffff16141561353d576040517f08c379a0000000000000000000000000000000000000000000000000000000008152600401613534906152f6565b60405180910390fd5b6135468161255a565b15613586576040517f08c379a000000000000000000000000000000000000000000000000000000000815260040161357d90615362565b60405180910390fd5b61359260008383612ecb565b6001600360008473ffffffffffffffffffffffffffffffffffffffff1673ffffffffffffffffffffffffffffffffffffffff16815260200190815260200160002060008282546135e29190614fcd565b92505081905550816002600083815260200190815260200160002060006101000a81548173ffffffffffffffffffffffffffffffffffffffff021916908373ffffffffffffffffffffffffffffffffffffffff160217905550808273ffffffffffffffffffffffffffffffffffffffff16600073ffffffffffffffffffffffffffffffffffffffff167fddf252ad1be2c89b69c2b068fc378daa952ba7f163c4a11628f55a4df523b3ef60405160405180910390a45050565b6000808273ffffffffffffffffffffffffffffffffffffffff163b119050919050565b6040518060e0016040528060008152602001600073ffffffffffffffffffffffffffffffffffffffff16815260200160008152602001606081526020016060815260200160608152602001600081525090565b82805461371d90614204565b90600052602060002090601f01602090048101928261373f5760008555613786565b82601f1061375857805160ff1916838001178555613786565b82800160010185558215613786579182015b8281111561378557825182559160200191906001019061376a565b5b5090506137939190613797565b5090565b5b808211156137b0576000816000905550600101613798565b5090565b6000604051905090565b600080fd5b600080fd5b60007fffffffff0000000000000000000000000000000000000000000000000000000082169050919050565b6137fd816137c8565b811461380857600080fd5b50565b60008135905061381a816137f4565b92915050565b600060208284031215613836576138356137be565b5b60006138448482850161380b565b91505092915050565b60008115159050919050565b6138628161384d565b82525050565b600060208201905061387d6000830184613859565b92915050565b6000819050919050565b61389681613883565b82525050565b60006020820190506138b1600083018461388d565b92915050565b600081519050919050565b600082825260208201905092915050565b60005b838110156138f15780820151818401526020810190506138d6565b83811115613900576000848401525b50505050565b6000601f19601f8301169050919050565b6000613922826138b7565b61392c81856138c2565b935061393c8185602086016138d3565b61394581613906565b840191505092915050565b6000602082019050818103600083015261396a8184613917565b905092915050565b61397b81613883565b811461398657600080fd5b50565b60008135905061399881613972565b92915050565b6000602082840312156139b4576139b36137be565b5b60006139c284828501613989565b91505092915050565b600073ffffffffffffffffffffffffffffffffffffffff82169050919050565b60006139f6826139cb565b9050919050565b613a06816139eb565b82525050565b6000602082019050613a2160008301846139fd565b92915050565b613a30816139eb565b8114613a3b57600080fd5b50565b600081359050613a4d81613a27565b92915050565b60008060408385031215613a6a57613a696137be565b5b6000613a7885828601613a3e565b9250506020613a8985828601613989565b9150509250929050565b600080600060608486031215613aac57613aab6137be565b5b6000613aba86828701613a3e565b9350506020613acb86828701613a3e565b9250506040613adc86828701613989565b9150509250925092565b600081519050919050565b600082825260208201905092915050565b6000819050602082019050919050565b613b1b81613883565b82525050565b613b2a816139eb565b82525050565b600082825260208201905092915050565b6000613b4c826138b7565b613b568185613b30565b9350613b668185602086016138d3565b613b6f81613906565b840191505092915050565b600060e083016000830151613b926000860182613b12565b506020830151613ba56020860182613b21565b506040830151613bb86040860182613b12565b5060608301518482036060860152613bd08282613b41565b91505060808301518482036080860152613bea8282613b41565b91505060a083015184820360a0860152613c048282613b41565b91505060c0830151613c1960c0860182613b12565b508091505092915050565b6000613c308383613b7a565b905092915050565b6000602082019050919050565b6000613c5082613ae6565b613c5a8185613af1565b935083602082028501613c6c85613b02565b8060005b85811015613ca85784840389528151613c898582613c24565b9450613c9483613c38565b925060208a01995050600181019050613c70565b50829750879550505050505092915050565b60006020820190508181036000830152613cd48184613c45565b905092915050565b600060e083016000830151613cf46000860182613b12565b506020830151613d076020860182613b21565b506040830151613d1a6040860182613b12565b5060608301518482036060860152613d328282613b41565b91505060808301518482036080860152613d4c8282613b41565b91505060a083015184820360a0860152613d668282613b41565b91505060c0830151613d7b60c0860182613b12565b508091505092915050565b60006020820190508181036000830152613da08184613cdc565b905092915050565b600060208284031215613dbe57613dbd6137be565b5b6000613dcc84828501613a3e565b91505092915050565b600080fd5b600080fd5b7f4e487b7100000000000000000000000000000000000000000000000000000000600052604160045260246000fd5b613e1782613906565b810181811067ffffffffffffffff82111715613e3657613e35613ddf565b5b80604052505050565b6000613e496137b4565b9050613e558282613e0e565b919050565b600067ffffffffffffffff821115613e7557613e74613ddf565b5b613e7e82613906565b9050602081019050919050565b82818337600083830152505050565b6000613ead613ea884613e5a565b613e3f565b905082815260208101848484011115613ec957613ec8613dda565b5b613ed4848285613e8b565b509392505050565b600082601f830112613ef157613ef0613dd5565b5b8135613f01848260208601613e9a565b91505092915050565b60008060008060808587031215613f2457613f236137be565b5b600085013567ffffffffffffffff811115613f4257613f416137c3565b5b613f4e87828801613edc565b945050602085013567ffffffffffffffff811115613f6f57613f6e6137c3565b5b613f7b87828801613edc565b935050604085013567ffffffffffffffff811115613f9c57613f9b6137c3565b5b613fa887828801613edc565b9250506060613fb987828801613989565b91505092959194509250565b613fce8161384d565b8114613fd957600080fd5b50565b600081359050613feb81613fc5565b92915050565b60008060408385031215614008576140076137be565b5b600061401685828601613a3e565b925050602061402785828601613fdc565b9150509250929050565b60008060408385031215614048576140476137be565b5b600061405685828601613989565b925050602061406785828601613989565b9150509250929050565b600067ffffffffffffffff82111561408c5761408b613ddf565b5b61409582613906565b9050602081019050919050565b60006140b56140b084614071565b613e3f565b9050828152602081018484840111156140d1576140d0613dda565b5b6140dc848285613e8b565b509392505050565b600082601f8301126140f9576140f8613dd5565b5b81356141098482602086016140a2565b91505092915050565b6000806000806080858703121561412c5761412b6137be565b5b600061413a87828801613a3e565b945050602061414b87828801613a3e565b935050604061415c87828801613989565b925050606085013567ffffffffffffffff81111561417d5761417c6137c3565b5b614189878288016140e4565b91505092959194509250565b600080604083850312156141ac576141ab6137be565b5b60006141ba85828601613a3e565b92505060206141cb85828601613a3e565b9150509250929050565b7f4e487b7100000000000000000000000000000000000000000000000000000000600052602260045260246000fd5b6000600282049050600182168061421c57607f821691505b602082108114156142305761422f6141d5565b5b50919050565b7f4552433732313a20617070726f76656420717565727920666f72206e6f6e657860008201527f697374656e7420746f6b656e0000000000000000000000000000000000000000602082015250565b6000614292602c836138c2565b915061429d82614236565b604082019050919050565b600060208201905081810360008301526142c181614285565b9050919050565b7f4552433732313a20617070726f76616c20746f2063757272656e74206f776e6560008201527f7200000000000000000000000000000000000000000000000000000000000000602082015250565b60006143246021836138c2565b915061432f826142c8565b604082019050919050565b6000602082019050818103600083015261435381614317565b9050919050565b7f4552433732313a20617070726f76652063616c6c6572206973206e6f74206f7760008201527f6e6572206e6f7220617070726f76656420666f7220616c6c0000000000000000602082015250565b60006143b66038836138c2565b91506143c18261435a565b604082019050919050565b600060208201905081810360008301526143e5816143a9565b9050919050565b7f4552433732313a207472616e736665722063616c6c6572206973206e6f74206f60008201527f776e6572206e6f7220617070726f766564000000000000000000000000000000602082015250565b60006144486031836138c2565b9150614453826143ec565b604082019050919050565b600060208201905081810360008301526144778161443b565b9050919050565b7f455243373231456e756d657261626c653a206f776e657220696e646578206f7560008201527f74206f6620626f756e6473000000000000000000000000000000000000000000602082015250565b60006144da602b836138c2565b91506144e58261447e565b604082019050919050565b60006020820190508181036000830152614509816144cd565b9050919050565b7f455243373231456e756d657261626c653a20676c6f62616c20696e646578206f60008201527f7574206f6620626f756e64730000000000000000000000000000000000000000602082015250565b600061456c602c836138c2565b915061457782614510565b604082019050919050565b6000602082019050818103600083015261459b8161455f565b9050919050565b7f4e487b7100000000000000000000000000000000000000000000000000000000600052603260045260246000fd5b7f4e487b7100000000000000000000000000000000000000000000000000000000600052601160045260246000fd5b600061460b82613883565b915061461683613883565b925082821015614629576146286145d1565b5b828203905092915050565b7f4552433732313a206f776e657220717565727920666f72206e6f6e657869737460008201527f656e7420746f6b656e0000000000000000000000000000000000000000000000602082015250565b60006146906029836138c2565b915061469b82614634565b604082019050919050565b600060208201905081810360008301526146bf81614683565b9050919050565b7f4552433732313a2062616c616e636520717565727920666f7220746865207a6560008201527f726f206164647265737300000000000000000000000000000000000000000000602082015250565b6000614722602a836138c2565b915061472d826146c6565b604082019050919050565b6000602082019050818103600083015261475181614715565b9050919050565b7f4f776e61626c653a2063616c6c6572206973206e6f7420746865206f776e6572600082015250565b600061478e6020836138c2565b915061479982614758565b602082019050919050565b600060208201905081810360008301526147bd81614781565b9050919050565b7f457468657220746f6f206c6f7720666f72206d696e74696e6721000000000000600082015250565b60006147fa601a836138c2565b9150614805826147c4565b602082019050919050565b60006020820190508181036000830152614829816147ed565b9050919050565b600081905092915050565b6000614846826138b7565b6148508185614830565b93506148608185602086016138d3565b80840191505092915050565b6000614878828461483b565b915081905092915050565b7f54686973204e465420697320616c7265616479206d696e746564210000000000600082015250565b60006148b9601b836138c2565b91506148c482614883565b602082019050919050565b600060208201905081810360008301526148e8816148ac565b9050919050565b7f53616c6573206e6f7420616c6c6f776564210000000000000000000000000000600082015250565b60006149256012836138c2565b9150614930826148ef565b602082019050919050565b6000602082019050818103600083015261495481614918565b9050919050565b600061496682613883565b915061497183613883565b9250817fffffffffffffffffffffffffffffffffffffffffffffffffffffffffffffffff04831182151516156149aa576149a96145d1565b5b828202905092915050565b7f4e487b7100000000000000000000000000000000000000000000000000000000600052601260045260246000fd5b60006149ef82613883565b91506149fa83613883565b925082614a0a57614a096149b5565b5b828204905092915050565b6000614a2082613883565b91507fffffffffffffffffffffffffffffffffffffffffffffffffffffffffffffffff821415614a5357614a526145d1565b5b600182019050919050565b6000608082019050614a73600083018761388d565b614a80602083018661388d565b8181036040830152614a928185613917565b9050614aa1606083018461388d565b95945050505050565b7f457468657220746f6f206c6f7720666f72207075726368617365210000000000600082015250565b6000614ae0601b836138c2565b9150614aeb82614aaa565b602082019050919050565b60006020820190508181036000830152614b0f81614ad3565b9050919050565b7f4f7065726174696f6e204e6f7420416c6c6f7765642100000000000000000000600082015250565b6000614b4c6016836138c2565b9150614b5782614b16565b602082019050919050565b60006020820190508181036000830152614b7b81614b3f565b9050919050565b60008190508160005260206000209050919050565b60008154614ba481614204565b614bae81866138c2565b94506001821660008114614bc95760018114614bdb57614c0e565b60ff1983168652602086019350614c0e565b614be485614b82565b60005b83811015614c0657815481890152600182019150602081019050614be7565b808801955050505b50505092915050565b6000608082019050614c2c600083018761388d565b614c39602083018661388d565b8181036040830152614c4b8185614b97565b9050614c5a606083018461388d565b95945050505050565b7f457468657220746f6f206c6f7721000000000000000000000000000000000000600082015250565b6000614c99600e836138c2565b9150614ca482614c63565b602082019050919050565b60006020820190508181036000830152614cc881614c8c565b9050919050565b7f4552433732314d657461646174613a2055524920717565727920666f72206e6f60008201527f6e6578697374656e7420746f6b656e0000000000000000000000000000000000602082015250565b6000614d2b602f836138c2565b9150614d3682614ccf565b604082019050919050565b60006020820190508181036000830152614d5a81614d1e565b9050919050565b6000614d6d828561483b565b9150614d79828461483b565b91508190509392505050565b7f4f776e61626c653a206e6577206f776e657220697320746865207a65726f206160008201527f6464726573730000000000000000000000000000000000000000000000000000602082015250565b6000614de16026836138c2565b9150614dec82614d85565b604082019050919050565b60006020820190508181036000830152614e1081614dd4565b9050919050565b7f4552433732313a206f70657261746f7220717565727920666f72206e6f6e657860008201527f697374656e7420746f6b656e0000000000000000000000000000000000000000602082015250565b6000614e73602c836138c2565b9150614e7e82614e17565b604082019050919050565b60006020820190508181036000830152614ea281614e66565b9050919050565b7f4552433732313a207472616e73666572206f6620746f6b656e2074686174206960008201527f73206e6f74206f776e0000000000000000000000000000000000000000000000602082015250565b6000614f056029836138c2565b9150614f1082614ea9565b604082019050919050565b60006020820190508181036000830152614f3481614ef8565b9050919050565b7f4552433732313a207472616e7366657220746f20746865207a65726f2061646460008201527f7265737300000000000000000000000000000000000000000000000000000000602082015250565b6000614f976024836138c2565b9150614fa282614f3b565b604082019050919050565b60006020820190508181036000830152614fc681614f8a565b9050919050565b6000614fd882613883565b9150614fe383613883565b9250827fffffffffffffffffffffffffffffffffffffffffffffffffffffffffffffffff03821115615018576150176145d1565b5b828201905092915050565b600081905092915050565b50565b600061503e600083615023565b91506150498261502e565b600082019050919050565b600061505f82615031565b9150819050919050565b7f4552433732313a20617070726f766520746f2063616c6c657200000000000000600082015250565b600061509f6019836138c2565b91506150aa82615069565b602082019050919050565b600060208201905081810360008301526150ce81615092565b9050919050565b7f4552433732313a207472616e7366657220746f206e6f6e20455243373231526560008201527f63656976657220696d706c656d656e7465720000000000000000000000000000602082015250565b60006151316032836138c2565b915061513c826150d5565b604082019050919050565b6000602082019050818103600083015261516081615124565b9050919050565b600061517282613883565b915061517d83613883565b92508261518d5761518c6149b5565b5b828206905092915050565b600081519050919050565b600082825260208201905092915050565b60006151bf82615198565b6151c981856151a3565b93506151d98185602086016138d3565b6151e281613906565b840191505092915050565b600060808201905061520260008301876139fd565b61520f60208301866139fd565b61521c604083018561388d565b818103606083015261522e81846151b4565b905095945050505050565b600081519050615248816137f4565b92915050565b600060208284031215615264576152636137be565b5b600061527284828501615239565b91505092915050565b7f4e487b7100000000000000000000000000000000000000000000000000000000600052603160045260246000fd5b7f4552433732313a206d696e7420746f20746865207a65726f2061646472657373600082015250565b60006152e06020836138c2565b91506152eb826152aa565b602082019050919050565b6000602082019050818103600083015261530f816152d3565b9050919050565b7f4552433732313a20746f6b656e20616c7265616479206d696e74656400000000600082015250565b600061534c601c836138c2565b915061535782615316565b602082019050919050565b6000602082019050818103600083015261537b8161533f565b905091905056fea2646970667358221220f5efdf704b94cfb5f8ce9e3a2d0f2a77628aa78d6faa6cc75fc0490dd069e75a64736f6c634300080b0033",
  "immutableReferences": {},
  "source": "// SPDX-License-Identifier: MIT\r\npragma solidity >=0.7.0 <0.9.0;\r\n\r\nimport \"./ERC721.sol\";\r\nimport \"./ERC721Enumerable.sol\";\r\nimport \"@openzeppelin/contracts/access/Ownable.sol\";\r\n\r\ncontract TimelessNFT is ERC721Enumerable, Ownable {\r\n    using Strings for uint256;\r\n\r\n    mapping(string => uint8) existingURIs;\r\n    mapping(uint256 => address) public holderOf;\r\n\r\n    address public artist;\r\n    uint256 public royalityFee;\r\n    uint256 public supply = 0;\r\n    uint256 public totalTx = 0;\r\n    uint256 public cost = 0.01 ether;\r\n\r\n    event Sale(\r\n        uint256 id,\r\n        address indexed owner,\r\n        uint256 cost,\r\n        string metadataURI,\r\n        uint256 timestamp\r\n    );\r\n\r\n    struct TransactionStruct {\r\n        uint256 id;\r\n        address owner;\r\n        uint256 cost;\r\n        string title;\r\n        string description;\r\n        string metadataURI;\r\n        uint256 timestamp;\r\n    }\r\n\r\n    TransactionStruct[] transactions;\r\n    TransactionStruct[] minted;\r\n\r\n    constructor(\r\n        string memory _name,\r\n        string memory _symbol,\r\n        uint256 _royalityFee,\r\n        address _artist\r\n    ) ERC721(_name, _symbol) {\r\n        royalityFee = _royalityFee;\r\n        artist = _artist;\r\n    }\r\n\r\n    function payToMint(\r\n        string memory title,\r\n        string memory description,\r\n        string memory metadataURI,\r\n        uint256 salesPrice\r\n    ) external payable {\r\n        require(msg.value >= cost, \"Ether too low for minting!\");\r\n        require(existingURIs[metadataURI] == 0, \"This NFT is already minted!\");\r\n        require(msg.sender != owner(), \"Sales not allowed!\");\r\n        \r\n\r\n        uint256 royality = (msg.value * royalityFee) / 100;\r\n        payTo(artist, royality);\r\n        payTo(owner(), (msg.value - royality));\r\n\r\n        supply++;\r\n\r\n        minted.push(\r\n            TransactionStruct(\r\n                supply,\r\n                msg.sender,\r\n                salesPrice,\r\n                title,\r\n                description,\r\n                metadataURI,\r\n                block.timestamp\r\n            )\r\n        );\r\n\r\n        emit Sale(\r\n            supply,\r\n            msg.sender,\r\n            msg.value,\r\n            metadataURI,\r\n            block.timestamp\r\n        );\r\n\r\n        _safeMint(msg.sender, supply);\r\n        existingURIs[metadataURI] = 1;\r\n        holderOf[supply] = msg.sender;\r\n    }\r\n\r\n    function payToBuy(uint256 id) external payable {\r\n        require(msg.value >= minted[id - 1].cost, \"Ether too low for purchase!\");\r\n        require(msg.sender != minted[id - 1].owner, \"Operation Not Allowed!\");\r\n\r\n        uint256 royality = (msg.value * royalityFee) / 100;\r\n        payTo(artist, royality);\r\n        payTo(minted[id - 1].owner, (msg.value - royality));\r\n\r\n        totalTx++;\r\n\r\n        transactions.push(\r\n            TransactionStruct(\r\n                totalTx,\r\n                msg.sender,\r\n                msg.value,\r\n                minted[id - 1].title,\r\n                minted[id - 1].description,\r\n                minted[id - 1].metadataURI,\r\n                block.timestamp\r\n            )\r\n        );\r\n\r\n        emit Sale(\r\n            totalTx,\r\n            msg.sender,\r\n            msg.value,\r\n            minted[id - 1].metadataURI,\r\n            block.timestamp\r\n        );\r\n\r\n        minted[id - 1].owner = msg.sender;\r\n    }\r\n\r\n    function changePrice(uint256 id, uint256 newPrice) external returns (bool) {\r\n        require(newPrice > 0 ether, \"Ether too low!\");\r\n        require(msg.sender == minted[id - 1].owner, \"Operation Not Allowed!\");\r\n\r\n        minted[id - 1].cost = newPrice;\r\n        return true;\r\n    }\r\n\r\n    function payTo(address to, uint256 amount) internal {\r\n        (bool success, ) = payable(to).call{value: amount}(\"\");\r\n        require(success);\r\n    }\r\n\r\n    function getAllNFTs() external view returns (TransactionStruct[] memory) {\r\n        return minted;\r\n    }\r\n\r\n    function getNFT(uint256 id) external view returns (TransactionStruct memory) {\r\n        return minted[id - 1];\r\n    }\r\n\r\n    function getAllTransactions() external view returns (TransactionStruct[] memory) {\r\n        return transactions;\r\n    }\r\n}\r\n",
  "sourcePath": "C:\\sites\\dapps\\timelessNFT\\src\\contracts\\TimelessNFT.sol",
  "compiler": {
    "name": "solc",
    "version": "0.8.11+commit.d7f03943.Emscripten.clang"
  },
  "schemaVersion": "3.4.4",
  "updatedAt": "2022-05-04T13:49:50.686Z",
  "networkType": "ethereum",
  "devdoc": {
    "kind": "dev",
    "methods": {
      "approve(address,uint256)": {
        "details": "See {IERC721-approve}."
      },
      "balanceOf(address)": {
        "details": "See {IERC721-balanceOf}."
      },
      "getApproved(uint256)": {
        "details": "See {IERC721-getApproved}."
      },
      "isApprovedForAll(address,address)": {
        "details": "See {IERC721-isApprovedForAll}."
      },
      "name()": {
        "details": "See {IERC721Metadata-name}."
      },
      "owner()": {
        "details": "Returns the address of the current owner."
      },
      "ownerOf(uint256)": {
        "details": "See {IERC721-ownerOf}."
      },
      "renounceOwnership()": {
        "details": "Leaves the contract without owner. It will not be possible to call `onlyOwner` functions anymore. Can only be called by the current owner. NOTE: Renouncing ownership will leave the contract without an owner, thereby removing any functionality that is only available to the owner."
      },
      "safeTransferFrom(address,address,uint256)": {
        "details": "See {IERC721-safeTransferFrom}."
      },
      "safeTransferFrom(address,address,uint256,bytes)": {
        "details": "See {IERC721-safeTransferFrom}."
      },
      "setApprovalForAll(address,bool)": {
        "details": "See {IERC721-setApprovalForAll}."
      },
      "supportsInterface(bytes4)": {
        "details": "See {IERC165-supportsInterface}."
      },
      "symbol()": {
        "details": "See {IERC721Metadata-symbol}."
      },
      "tokenByIndex(uint256)": {
        "details": "See {IERC721Enumerable-tokenByIndex}."
      },
      "tokenOfOwnerByIndex(address,uint256)": {
        "details": "See {IERC721Enumerable-tokenOfOwnerByIndex}."
      },
      "tokenURI(uint256)": {
        "details": "See {IERC721Metadata-tokenURI}."
      },
      "totalSupply()": {
        "details": "See {IERC721Enumerable-totalSupply}."
      },
      "transferFrom(address,address,uint256)": {
        "details": "See {IERC721-transferFrom}."
      },
      "transferOwnership(address)": {
        "details": "Transfers ownership of the contract to a new account (`newOwner`). Can only be called by the current owner."
      }
    },
    "version": 1
  },
  "userdoc": {
    "kind": "user",
    "methods": {},
    "version": 1
  }
}