{
  "contractName": "TimelessNFT",
  "abi": [
    {
      "inputs": [
        {
          "internalType": "string",
          "name": "_name",
          "type": "string"
        },
        {
          "internalType": "string",
          "name": "_symbol",
          "type": "string"
        },
        {
          "internalType": "uint256",
          "name": "_royalityFee",
          "type": "uint256"
        },
        {
          "internalType": "address",
          "name": "_deployer",
          "type": "address"
        },
        {
          "internalType": "address",
          "name": "_artist",
          "type": "address"
        }
      ],
      "stateMutability": "nonpayable",
      "type": "constructor"
    },
    {
      "anonymous": false,
      "inputs": [
        {
          "indexed": true,
          "internalType": "address",
          "name": "owner",
          "type": "address"
        },
        {
          "indexed": true,
          "internalType": "address",
          "name": "approved",
          "type": "address"
        },
        {
          "indexed": true,
          "internalType": "uint256",
          "name": "tokenId",
          "type": "uint256"
        }
      ],
      "name": "Approval",
      "type": "event"
    },
    {
      "anonymous": false,
      "inputs": [
        {
          "indexed": true,
          "internalType": "address",
          "name": "owner",
          "type": "address"
        },
        {
          "indexed": true,
          "internalType": "address",
          "name": "operator",
          "type": "address"
        },
        {
          "indexed": false,
          "internalType": "bool",
          "name": "approved",
          "type": "bool"
        }
      ],
      "name": "ApprovalForAll",
      "type": "event"
    },
    {
      "anonymous": false,
      "inputs": [
        {
          "indexed": true,
          "internalType": "address",
          "name": "previousOwner",
          "type": "address"
        },
        {
          "indexed": true,
          "internalType": "address",
          "name": "newOwner",
          "type": "address"
        }
      ],
      "name": "OwnershipTransferred",
      "type": "event"
    },
    {
      "anonymous": false,
      "inputs": [
        {
          "indexed": false,
          "internalType": "uint256",
          "name": "id",
          "type": "uint256"
        },
        {
          "indexed": true,
          "internalType": "address",
          "name": "from",
          "type": "address"
        },
        {
          "indexed": true,
          "internalType": "address",
          "name": "to",
          "type": "address"
        },
        {
          "indexed": false,
          "internalType": "uint256",
          "name": "cost",
          "type": "uint256"
        },
        {
          "indexed": false,
          "internalType": "string",
          "name": "metadataURI",
          "type": "string"
        },
        {
          "indexed": false,
          "internalType": "uint256",
          "name": "timestamp",
          "type": "uint256"
        }
      ],
      "name": "Sale",
      "type": "event"
    },
    {
      "anonymous": false,
      "inputs": [
        {
          "indexed": true,
          "internalType": "address",
          "name": "from",
          "type": "address"
        },
        {
          "indexed": true,
          "internalType": "address",
          "name": "to",
          "type": "address"
        },
        {
          "indexed": true,
          "internalType": "uint256",
          "name": "tokenId",
          "type": "uint256"
        }
      ],
      "name": "Transfer",
      "type": "event"
    },
    {
      "inputs": [
        {
          "internalType": "address",
          "name": "to",
          "type": "address"
        },
        {
          "internalType": "uint256",
          "name": "tokenId",
          "type": "uint256"
        }
      ],
      "name": "approve",
      "outputs": [],
      "stateMutability": "nonpayable",
      "type": "function"
    },
    {
      "inputs": [],
      "name": "artist",
      "outputs": [
        {
          "internalType": "address",
          "name": "",
          "type": "address"
        }
      ],
      "stateMutability": "view",
      "type": "function",
      "constant": true
    },
    {
      "inputs": [
        {
          "internalType": "address",
          "name": "owner",
          "type": "address"
        }
      ],
      "name": "balanceOf",
      "outputs": [
        {
          "internalType": "uint256",
          "name": "",
          "type": "uint256"
        }
      ],
      "stateMutability": "view",
      "type": "function",
      "constant": true
    },
    {
      "inputs": [],
      "name": "deployer",
      "outputs": [
        {
          "internalType": "address",
          "name": "",
          "type": "address"
        }
      ],
      "stateMutability": "view",
      "type": "function",
      "constant": true
    },
    {
      "inputs": [
        {
          "internalType": "uint256",
          "name": "tokenId",
          "type": "uint256"
        }
      ],
      "name": "getApproved",
      "outputs": [
        {
          "internalType": "address",
          "name": "",
          "type": "address"
        }
      ],
      "stateMutability": "view",
      "type": "function",
      "constant": true
    },
    {
      "inputs": [
        {
          "internalType": "address",
          "name": "owner",
          "type": "address"
        },
        {
          "internalType": "address",
          "name": "operator",
          "type": "address"
        }
      ],
      "name": "isApprovedForAll",
      "outputs": [
        {
          "internalType": "bool",
          "name": "",
          "type": "bool"
        }
      ],
      "stateMutability": "view",
      "type": "function",
      "constant": true
    },
    {
      "inputs": [],
      "name": "name",
      "outputs": [
        {
          "internalType": "string",
          "name": "",
          "type": "string"
        }
      ],
      "stateMutability": "view",
      "type": "function",
      "constant": true
    },
    {
      "inputs": [],
      "name": "owner",
      "outputs": [
        {
          "internalType": "address",
          "name": "",
          "type": "address"
        }
      ],
      "stateMutability": "view",
      "type": "function",
      "constant": true
    },
    {
      "inputs": [
        {
          "internalType": "uint256",
          "name": "tokenId",
          "type": "uint256"
        }
      ],
      "name": "ownerOf",
      "outputs": [
        {
          "internalType": "address",
          "name": "",
          "type": "address"
        }
      ],
      "stateMutability": "view",
      "type": "function",
      "constant": true
    },
    {
      "inputs": [],
      "name": "renounceOwnership",
      "outputs": [],
      "stateMutability": "nonpayable",
      "type": "function"
    },
    {
      "inputs": [],
      "name": "royalityFee",
      "outputs": [
        {
          "internalType": "uint256",
          "name": "",
          "type": "uint256"
        }
      ],
      "stateMutability": "view",
      "type": "function",
      "constant": true
    },
    {
      "inputs": [
        {
          "internalType": "address",
          "name": "from",
          "type": "address"
        },
        {
          "internalType": "address",
          "name": "to",
          "type": "address"
        },
        {
          "internalType": "uint256",
          "name": "tokenId",
          "type": "uint256"
        }
      ],
      "name": "safeTransferFrom",
      "outputs": [],
      "stateMutability": "payable",
      "type": "function",
      "payable": true
    },
    {
      "inputs": [
        {
          "internalType": "address",
          "name": "from",
          "type": "address"
        },
        {
          "internalType": "address",
          "name": "to",
          "type": "address"
        },
        {
          "internalType": "uint256",
          "name": "tokenId",
          "type": "uint256"
        },
        {
          "internalType": "bytes",
          "name": "_data",
          "type": "bytes"
        }
      ],
      "name": "safeTransferFrom",
      "outputs": [],
      "stateMutability": "payable",
      "type": "function",
      "payable": true
    },
    {
      "inputs": [
        {
          "internalType": "address",
          "name": "operator",
          "type": "address"
        },
        {
          "internalType": "bool",
          "name": "approved",
          "type": "bool"
        }
      ],
      "name": "setApprovalForAll",
      "outputs": [],
      "stateMutability": "nonpayable",
      "type": "function"
    },
    {
      "inputs": [
        {
          "internalType": "bytes4",
          "name": "interfaceId",
          "type": "bytes4"
        }
      ],
      "name": "supportsInterface",
      "outputs": [
        {
          "internalType": "bool",
          "name": "",
          "type": "bool"
        }
      ],
      "stateMutability": "view",
      "type": "function",
      "constant": true
    },
    {
      "inputs": [],
      "name": "symbol",
      "outputs": [
        {
          "internalType": "string",
          "name": "",
          "type": "string"
        }
      ],
      "stateMutability": "view",
      "type": "function",
      "constant": true
    },
    {
      "inputs": [
        {
          "internalType": "uint256",
          "name": "index",
          "type": "uint256"
        }
      ],
      "name": "tokenByIndex",
      "outputs": [
        {
          "internalType": "uint256",
          "name": "",
          "type": "uint256"
        }
      ],
      "stateMutability": "view",
      "type": "function",
      "constant": true
    },
    {
      "inputs": [
        {
          "internalType": "address",
          "name": "owner",
          "type": "address"
        },
        {
          "internalType": "uint256",
          "name": "index",
          "type": "uint256"
        }
      ],
      "name": "tokenOfOwnerByIndex",
      "outputs": [
        {
          "internalType": "uint256",
          "name": "",
          "type": "uint256"
        }
      ],
      "stateMutability": "view",
      "type": "function",
      "constant": true
    },
    {
      "inputs": [
        {
          "internalType": "uint256",
          "name": "tokenId",
          "type": "uint256"
        }
      ],
      "name": "tokenURI",
      "outputs": [
        {
          "internalType": "string",
          "name": "",
          "type": "string"
        }
      ],
      "stateMutability": "view",
      "type": "function",
      "constant": true
    },
    {
      "inputs": [],
      "name": "totalSupply",
      "outputs": [
        {
          "internalType": "uint256",
          "name": "",
          "type": "uint256"
        }
      ],
      "stateMutability": "view",
      "type": "function",
      "constant": true
    },
    {
      "inputs": [
        {
          "internalType": "address",
          "name": "newOwner",
          "type": "address"
        }
      ],
      "name": "transferOwnership",
      "outputs": [],
      "stateMutability": "nonpayable",
      "type": "function"
    },
    {
      "inputs": [
        {
          "internalType": "string",
          "name": "uri",
          "type": "string"
        }
      ],
      "name": "isNFTOwned",
      "outputs": [
        {
          "internalType": "bool",
          "name": "",
          "type": "bool"
        }
      ],
      "stateMutability": "view",
      "type": "function",
      "constant": true
    },
    {
      "inputs": [
        {
          "internalType": "address",
          "name": "to",
          "type": "address"
        },
        {
          "internalType": "string",
          "name": "metadataURI",
          "type": "string"
        }
      ],
      "name": "payToMint",
      "outputs": [],
      "stateMutability": "payable",
      "type": "function",
      "payable": true
    },
    {
      "inputs": [
        {
          "internalType": "address",
          "name": "from",
          "type": "address"
        },
        {
          "internalType": "address",
          "name": "to",
          "type": "address"
        },
        {
          "internalType": "uint256",
          "name": "tokenId",
          "type": "uint256"
        }
      ],
      "name": "transferFrom",
      "outputs": [],
      "stateMutability": "payable",
      "type": "function",
      "payable": true
    },
    {
      "inputs": [],
      "name": "getTransactions",
      "outputs": [
        {
          "components": [
            {
              "internalType": "uint256",
              "name": "id",
              "type": "uint256"
            },
            {
              "internalType": "address",
              "name": "from",
              "type": "address"
            },
            {
              "internalType": "address",
              "name": "to",
              "type": "address"
            },
            {
              "internalType": "uint256",
              "name": "cost",
              "type": "uint256"
            },
            {
              "internalType": "string",
              "name": "metadataURI",
              "type": "string"
            },
            {
              "internalType": "uint256",
              "name": "timestamp",
              "type": "uint256"
            }
          ],
          "internalType": "struct TimelessNFT.TransactionStruct[]",
          "name": "",
          "type": "tuple[]"
        }
      ],
      "stateMutability": "view",
      "type": "function",
      "constant": true
    },
    {
      "inputs": [],
      "name": "getMintedNFTs",
      "outputs": [
        {
          "components": [
            {
              "internalType": "uint256",
              "name": "id",
              "type": "uint256"
            },
            {
              "internalType": "address",
              "name": "from",
              "type": "address"
            },
            {
              "internalType": "address",
              "name": "to",
              "type": "address"
            },
            {
              "internalType": "uint256",
              "name": "cost",
              "type": "uint256"
            },
            {
              "internalType": "string",
              "name": "metadataURI",
              "type": "string"
            },
            {
              "internalType": "uint256",
              "name": "timestamp",
              "type": "uint256"
            }
          ],
          "internalType": "struct TimelessNFT.TransactionStruct[]",
          "name": "",
          "type": "tuple[]"
        }
      ],
      "stateMutability": "view",
      "type": "function",
      "constant": true
    },
    {
      "inputs": [],
      "name": "count",
      "outputs": [
        {
          "internalType": "uint256",
          "name": "",
          "type": "uint256"
        }
      ],
      "stateMutability": "view",
      "type": "function",
      "constant": true
    }
  ],
  "bytecode": "0x60806040526072600c553480156200001657600080fd5b5060405162004c0b38038062004c0b83398181016040528101906200003c919062000504565b848481600090805190602001906200005692919062000217565b5080600190805190602001906200006f92919062000217565b50505062000092620000866200013c60201b60201c565b6200014460201b60201c565b82600f8190555081600d60006101000a81548173ffffffffffffffffffffffffffffffffffffffff021916908373ffffffffffffffffffffffffffffffffffffffff16021790555080600e60006101000a81548173ffffffffffffffffffffffffffffffffffffffff021916908373ffffffffffffffffffffffffffffffffffffffff1602179055506200012b6200020a60201b60201c565b60108190555050505050506200062f565b600033905090565b6000600a60009054906101000a900473ffffffffffffffffffffffffffffffffffffffff16905081600a60006101000a81548173ffffffffffffffffffffffffffffffffffffffff021916908373ffffffffffffffffffffffffffffffffffffffff1602179055508173ffffffffffffffffffffffffffffffffffffffff168173ffffffffffffffffffffffffffffffffffffffff167f8be0079c531659141344cd1fd0a4f28419497f9722a3daafe3b4186f6b6457e060405160405180910390a35050565b6000600880549050905090565b8280546200022590620005f9565b90600052602060002090601f01602090048101928262000249576000855562000295565b82601f106200026457805160ff191683800117855562000295565b8280016001018555821562000295579182015b828111156200029457825182559160200191906001019062000277565b5b509050620002a49190620002a8565b5090565b5b80821115620002c3576000816000905550600101620002a9565b5090565b6000604051905090565b600080fd5b600080fd5b600080fd5b600080fd5b6000601f19601f8301169050919050565b7f4e487b7100000000000000000000000000000000000000000000000000000000600052604160045260246000fd5b6200033082620002e5565b810181811067ffffffffffffffff82111715620003525762000351620002f6565b5b80604052505050565b600062000367620002c7565b905062000375828262000325565b919050565b600067ffffffffffffffff821115620003985762000397620002f6565b5b620003a382620002e5565b9050602081019050919050565b60005b83811015620003d0578082015181840152602081019050620003b3565b83811115620003e0576000848401525b50505050565b6000620003fd620003f7846200037a565b6200035b565b9050828152602081018484840111156200041c576200041b620002e0565b5b62000429848285620003b0565b509392505050565b600082601f830112620004495762000448620002db565b5b81516200045b848260208601620003e6565b91505092915050565b6000819050919050565b620004798162000464565b81146200048557600080fd5b50565b60008151905062000499816200046e565b92915050565b600073ffffffffffffffffffffffffffffffffffffffff82169050919050565b6000620004cc826200049f565b9050919050565b620004de81620004bf565b8114620004ea57600080fd5b50565b600081519050620004fe81620004d3565b92915050565b600080600080600060a08688031215620005235762000522620002d1565b5b600086015167ffffffffffffffff811115620005445762000543620002d6565b5b620005528882890162000431565b955050602086015167ffffffffffffffff811115620005765762000575620002d6565b5b620005848882890162000431565b9450506040620005978882890162000488565b9350506060620005aa88828901620004ed565b9250506080620005bd88828901620004ed565b9150509295509295909350565b7f4e487b7100000000000000000000000000000000000000000000000000000000600052602260045260246000fd5b600060028204905060018216806200061257607f821691505b60208210811415620006295762000628620005ca565b5b50919050565b6145cc806200063f6000396000f3fe60806040526004361061019c5760003560e01c80636352211e116100ec57806395d89b411161008a578063c87b56dd11610064578063c87b56dd146105a8578063d5f39488146105e5578063e985e9c514610610578063f2fde38b1461064d5761019c565b806395d89b4114610538578063a22cb46514610563578063b88d4fde1461058c5761019c565b806377bf44ea116100c657806377bf44ea1461047a57806383920e90146104a55780638b66a5db146104d05780638da5cb5b1461050d5761019c565b80636352211e146103e957806370a0823114610426578063715018a6146104635761019c565b806323b872dd1161015957806342842e0e1161013357806342842e0e1461034957806343bc1612146103655780634f6ccce714610390578063615fd9e2146103cd5761019c565b806323b872dd146102c55780632f745c59146102e1578063326bb4ad1461031e5761019c565b806301ffc9a7146101a157806306661abd146101de57806306fdde0314610209578063081812fc14610234578063095ea7b31461027157806318160ddd1461029a575b600080fd5b3480156101ad57600080fd5b506101c860048036038101906101c39190612d76565b610676565b6040516101d59190612dbe565b60405180910390f35b3480156101ea57600080fd5b506101f36106f0565b6040516102009190612df2565b60405180910390f35b34801561021557600080fd5b5061021e6106fa565b60405161022b9190612ea6565b60405180910390f35b34801561024057600080fd5b5061025b60048036038101906102569190612ef4565b61078c565b6040516102689190612f62565b60405180910390f35b34801561027d57600080fd5b5061029860048036038101906102939190612fa9565b610811565b005b3480156102a657600080fd5b506102af610929565b6040516102bc9190612df2565b60405180910390f35b6102df60048036038101906102da9190612fe9565b610936565b005b3480156102ed57600080fd5b5061030860048036038101906103039190612fa9565b610a43565b6040516103159190612df2565b60405180910390f35b34801561032a57600080fd5b50610333610ae8565b6040516103409190612df2565b60405180910390f35b610363600480360381019061035e9190612fe9565b610aee565b005b34801561037157600080fd5b5061037a610b0e565b6040516103879190612f62565b60405180910390f35b34801561039c57600080fd5b506103b760048036038101906103b29190612ef4565b610b34565b6040516103c49190612df2565b60405180910390f35b6103e760048036038101906103e29190613171565b610ba5565b005b3480156103f557600080fd5b50610410600480360381019061040b9190612ef4565b610f2f565b60405161041d9190612f62565b60405180910390f35b34801561043257600080fd5b5061044d600480360381019061044891906131cd565b610fe1565b60405161045a9190612df2565b60405180910390f35b34801561046f57600080fd5b50610478611099565b005b34801561048657600080fd5b5061048f611121565b60405161049c91906133ad565b60405180910390f35b3480156104b157600080fd5b506104ba6112dc565b6040516104c791906133ad565b60405180910390f35b3480156104dc57600080fd5b506104f760048036038101906104f291906133cf565b611497565b6040516105049190612dbe565b60405180910390f35b34801561051957600080fd5b506105226114d2565b60405161052f9190612f62565b60405180910390f35b34801561054457600080fd5b5061054d6114fc565b60405161055a9190612ea6565b60405180910390f35b34801561056f57600080fd5b5061058a60048036038101906105859190613444565b61158e565b005b6105a660048036038101906105a19190613525565b6115a4565b005b3480156105b457600080fd5b506105cf60048036038101906105ca9190612ef4565b611606565b6040516105dc9190612ea6565b60405180910390f35b3480156105f157600080fd5b506105fa6116ad565b6040516106079190612f62565b60405180910390f35b34801561061c57600080fd5b50610637600480360381019061063291906135a8565b6116d3565b6040516106449190612dbe565b60405180910390f35b34801561065957600080fd5b50610674600480360381019061066f91906131cd565b611767565b005b60007f780e9d63000000000000000000000000000000000000000000000000000000007bffffffffffffffffffffffffffffffffffffffffffffffffffffffff1916827bffffffffffffffffffffffffffffffffffffffffffffffffffffffff191614806106e957506106e88261185f565b5b9050919050565b6000601054905090565b60606000805461070990613617565b80601f016020809104026020016040519081016040528092919081815260200182805461073590613617565b80156107825780601f1061075757610100808354040283529160200191610782565b820191906000526020600020905b81548152906001019060200180831161076557829003601f168201915b5050505050905090565b600061079782611941565b6107d6576040517f08c379a00000000000000000000000000000000000000000000000000000000081526004016107cd906136bb565b60405180910390fd5b6004600083815260200190815260200160002060009054906101000a900473ffffffffffffffffffffffffffffffffffffffff169050919050565b600061081c82610f2f565b90508073ffffffffffffffffffffffffffffffffffffffff168373ffffffffffffffffffffffffffffffffffffffff16141561088d576040517f08c379a00000000000000000000000000000000000000000000000000000000081526004016108849061374d565b60405180910390fd5b8073ffffffffffffffffffffffffffffffffffffffff166108ac6119ad565b73ffffffffffffffffffffffffffffffffffffffff1614806108db57506108da816108d56119ad565b6116d3565b5b61091a576040517f08c379a0000000000000000000000000000000000000000000000000000000008152600401610911906137df565b60405180910390fd5b61092483836119b5565b505050565b6000600880549050905090565b6109476109416119ad565b82611a6e565b610986576040517f08c379a000000000000000000000000000000000000000000000000000000000815260040161097d90613871565b60405180910390fd5b6000341115610a335760006064600f54346109a191906138c0565b6109ab9190613949565b90506109d9600e60009054906101000a900473ffffffffffffffffffffffffffffffffffffffff1682611b4c565b6109ee8482346109e9919061397a565b611b4c565b610a31828585346040518060400160405280601481526020017f5472616e736665726564206f776e65727368697000000000000000000000000081525042611bc7565b505b610a3e838383611d89565b505050565b6000610a4e83610fe1565b8210610a8f576040517f08c379a0000000000000000000000000000000000000000000000000000000008152600401610a8690613a20565b60405180910390fd5b600660008473ffffffffffffffffffffffffffffffffffffffff1673ffffffffffffffffffffffffffffffffffffffff168152602001908152602001600020600083815260200190815260200160002054905092915050565b600f5481565b610b09838383604051806020016040528060008152506115a4565b505050565b600e60009054906101000a900473ffffffffffffffffffffffffffffffffffffffff1681565b6000610b3e610929565b8210610b7f576040517f08c379a0000000000000000000000000000000000000000000000000000000008152600401610b7690613ab2565b60405180910390fd5b60088281548110610b9357610b92613ad2565b5b90600052602060002001549050919050565b600c546010541115610bec576040517f08c379a0000000000000000000000000000000000000000000000000000000008152600401610be390613b73565b60405180910390fd5b60003411610c2f576040517f08c379a0000000000000000000000000000000000000000000000000000000008152600401610c2690613bdf565b60405180910390fd5b6001600b82604051610c419190613c3b565b908152602001604051809103902060009054906101000a900460ff1660ff161415610ca1576040517f08c379a0000000000000000000000000000000000000000000000000000000008152600401610c9890613c9e565b60405180910390fd5b610ca96114d2565b73ffffffffffffffffffffffffffffffffffffffff168273ffffffffffffffffffffffffffffffffffffffff1614610f1f57600160106000828254610cee9190613cbe565b925050819055506001600b82604051610d079190613c3b565b908152602001604051809103902060006101000a81548160ff021916908360ff16021790555060006064600f5434610d3f91906138c0565b610d499190613949565b9050610d77600e60009054906101000a900473ffffffffffffffffffffffffffffffffffffffff1682611b4c565b610dae600d60009054906101000a900473ffffffffffffffffffffffffffffffffffffffff168234610da9919061397a565b611b4c565b60126040518060c001604052806010548152602001610dcb6114d2565b73ffffffffffffffffffffffffffffffffffffffff1681526020018573ffffffffffffffffffffffffffffffffffffffff1681526020013481526020018481526020014281525090806001815401808255809150506001900390600052602060002090600602016000909190919091506000820151816000015560208201518160010160006101000a81548173ffffffffffffffffffffffffffffffffffffffff021916908373ffffffffffffffffffffffffffffffffffffffff16021790555060408201518160020160006101000a81548173ffffffffffffffffffffffffffffffffffffffff021916908373ffffffffffffffffffffffffffffffffffffffff160217905550606082015181600301556080820151816004019080519060200190610ef9929190612c67565b5060a082015181600501555050610f1d601054610f146114d2565b85348642611bc7565b505b610f2b82601054611fe5565b5050565b6000806002600084815260200190815260200160002060009054906101000a900473ffffffffffffffffffffffffffffffffffffffff169050600073ffffffffffffffffffffffffffffffffffffffff168173ffffffffffffffffffffffffffffffffffffffff161415610fd8576040517f08c379a0000000000000000000000000000000000000000000000000000000008152600401610fcf90613d86565b60405180910390fd5b80915050919050565b60008073ffffffffffffffffffffffffffffffffffffffff168273ffffffffffffffffffffffffffffffffffffffff161415611052576040517f08c379a000000000000000000000000000000000000000000000000000000000815260040161104990613e18565b60405180910390fd5b600360008373ffffffffffffffffffffffffffffffffffffffff1673ffffffffffffffffffffffffffffffffffffffff168152602001908152602001600020549050919050565b6110a16119ad565b73ffffffffffffffffffffffffffffffffffffffff166110bf6114d2565b73ffffffffffffffffffffffffffffffffffffffff1614611115576040517f08c379a000000000000000000000000000000000000000000000000000000000815260040161110c90613e84565b60405180910390fd5b61111f6000612003565b565b60606012805480602002602001604051908101604052809291908181526020016000905b828210156112d357838290600052602060002090600602016040518060c0016040529081600082015481526020016001820160009054906101000a900473ffffffffffffffffffffffffffffffffffffffff1673ffffffffffffffffffffffffffffffffffffffff1673ffffffffffffffffffffffffffffffffffffffff1681526020016002820160009054906101000a900473ffffffffffffffffffffffffffffffffffffffff1673ffffffffffffffffffffffffffffffffffffffff1673ffffffffffffffffffffffffffffffffffffffff1681526020016003820154815260200160048201805461123890613617565b80601f016020809104026020016040519081016040528092919081815260200182805461126490613617565b80156112b15780601f10611286576101008083540402835291602001916112b1565b820191906000526020600020905b81548152906001019060200180831161129457829003601f168201915b5050505050815260200160058201548152505081526020019060010190611145565b50505050905090565b60606011805480602002602001604051908101604052809291908181526020016000905b8282101561148e57838290600052602060002090600602016040518060c0016040529081600082015481526020016001820160009054906101000a900473ffffffffffffffffffffffffffffffffffffffff1673ffffffffffffffffffffffffffffffffffffffff1673ffffffffffffffffffffffffffffffffffffffff1681526020016002820160009054906101000a900473ffffffffffffffffffffffffffffffffffffffff1673ffffffffffffffffffffffffffffffffffffffff1673ffffffffffffffffffffffffffffffffffffffff168152602001600382015481526020016004820180546113f390613617565b80601f016020809104026020016040519081016040528092919081815260200182805461141f90613617565b801561146c5780601f106114415761010080835404028352916020019161146c565b820191906000526020600020905b81548152906001019060200180831161144f57829003601f168201915b5050505050815260200160058201548152505081526020019060010190611300565b50505050905090565b60006001600b836040516114ab9190613c3b565b908152602001604051809103902060009054906101000a900460ff1660ff16149050919050565b6000600a60009054906101000a900473ffffffffffffffffffffffffffffffffffffffff16905090565b60606001805461150b90613617565b80601f016020809104026020016040519081016040528092919081815260200182805461153790613617565b80156115845780601f1061155957610100808354040283529160200191611584565b820191906000526020600020905b81548152906001019060200180831161156757829003601f168201915b5050505050905090565b6115a06115996119ad565b83836120c9565b5050565b6115b56115af6119ad565b83611a6e565b6115f4576040517f08c379a00000000000000000000000000000000000000000000000000000000081526004016115eb90613871565b60405180910390fd5b61160084848484612236565b50505050565b606061161182611941565b611650576040517f08c379a000000000000000000000000000000000000000000000000000000000815260040161164790613f16565b60405180910390fd5b600061165a612292565b9050600081511161167a57604051806020016040528060008152506116a5565b80611684846122a9565b604051602001611695929190613f36565b6040516020818303038152906040525b915050919050565b600d60009054906101000a900473ffffffffffffffffffffffffffffffffffffffff1681565b6000600560008473ffffffffffffffffffffffffffffffffffffffff1673ffffffffffffffffffffffffffffffffffffffff16815260200190815260200160002060008373ffffffffffffffffffffffffffffffffffffffff1673ffffffffffffffffffffffffffffffffffffffff16815260200190815260200160002060009054906101000a900460ff16905092915050565b61176f6119ad565b73ffffffffffffffffffffffffffffffffffffffff1661178d6114d2565b73ffffffffffffffffffffffffffffffffffffffff16146117e3576040517f08c379a00000000000000000000000000000000000000000000000000000000081526004016117da90613e84565b60405180910390fd5b600073ffffffffffffffffffffffffffffffffffffffff168173ffffffffffffffffffffffffffffffffffffffff161415611853576040517f08c379a000000000000000000000000000000000000000000000000000000000815260040161184a90613fcc565b60405180910390fd5b61185c81612003565b50565b60007f80ac58cd000000000000000000000000000000000000000000000000000000007bffffffffffffffffffffffffffffffffffffffffffffffffffffffff1916827bffffffffffffffffffffffffffffffffffffffffffffffffffffffff1916148061192a57507f5b5e139f000000000000000000000000000000000000000000000000000000007bffffffffffffffffffffffffffffffffffffffffffffffffffffffff1916827bffffffffffffffffffffffffffffffffffffffffffffffffffffffff1916145b8061193a57506119398261240a565b5b9050919050565b60008073ffffffffffffffffffffffffffffffffffffffff166002600084815260200190815260200160002060009054906101000a900473ffffffffffffffffffffffffffffffffffffffff1673ffffffffffffffffffffffffffffffffffffffff1614159050919050565b600033905090565b816004600083815260200190815260200160002060006101000a81548173ffffffffffffffffffffffffffffffffffffffff021916908373ffffffffffffffffffffffffffffffffffffffff160217905550808273ffffffffffffffffffffffffffffffffffffffff16611a2883610f2f565b73ffffffffffffffffffffffffffffffffffffffff167f8c5be1e5ebec7d5bd14f71427d1e84f3dd0314c0f7b2291e5b200ac8c7c3b92560405160405180910390a45050565b6000611a7982611941565b611ab8576040517f08c379a0000000000000000000000000000000000000000000000000000000008152600401611aaf9061405e565b60405180910390fd5b6000611ac383610f2f565b90508073ffffffffffffffffffffffffffffffffffffffff168473ffffffffffffffffffffffffffffffffffffffff161480611b3257508373ffffffffffffffffffffffffffffffffffffffff16611b1a8461078c565b73ffffffffffffffffffffffffffffffffffffffff16145b80611b435750611b4281856116d3565b5b91505092915050565b60008273ffffffffffffffffffffffffffffffffffffffff1682604051611b72906140af565b60006040518083038185875af1925050503d8060008114611baf576040519150601f19603f3d011682016040523d82523d6000602084013e611bb4565b606091505b5050905080611bc257600080fd5b505050565b60116040518060c001604052808881526020018773ffffffffffffffffffffffffffffffffffffffff1681526020018673ffffffffffffffffffffffffffffffffffffffff1681526020018581526020018481526020018381525090806001815401808255809150506001900390600052602060002090600602016000909190919091506000820151816000015560208201518160010160006101000a81548173ffffffffffffffffffffffffffffffffffffffff021916908373ffffffffffffffffffffffffffffffffffffffff16021790555060408201518160020160006101000a81548173ffffffffffffffffffffffffffffffffffffffff021916908373ffffffffffffffffffffffffffffffffffffffff160217905550606082015181600301556080820151816004019080519060200190611d09929190612c67565b5060a0820151816005015550508373ffffffffffffffffffffffffffffffffffffffff168573ffffffffffffffffffffffffffffffffffffffff167f1bdfbffaa8395b26dd08fc601508f9d05fedf05d1494416e4077df529707fb7b88868686604051611d7994939291906140c4565b60405180910390a3505050505050565b8273ffffffffffffffffffffffffffffffffffffffff16611da982610f2f565b73ffffffffffffffffffffffffffffffffffffffff1614611dff576040517f08c379a0000000000000000000000000000000000000000000000000000000008152600401611df690614182565b60405180910390fd5b600073ffffffffffffffffffffffffffffffffffffffff168273ffffffffffffffffffffffffffffffffffffffff161415611e6f576040517f08c379a0000000000000000000000000000000000000000000000000000000008152600401611e6690614214565b60405180910390fd5b611e7a838383612474565b611e856000826119b5565b6001600360008573ffffffffffffffffffffffffffffffffffffffff1673ffffffffffffffffffffffffffffffffffffffff1681526020019081526020016000206000828254611ed5919061397a565b925050819055506001600360008473ffffffffffffffffffffffffffffffffffffffff1673ffffffffffffffffffffffffffffffffffffffff1681526020019081526020016000206000828254611f2c9190613cbe565b92505081905550816002600083815260200190815260200160002060006101000a81548173ffffffffffffffffffffffffffffffffffffffff021916908373ffffffffffffffffffffffffffffffffffffffff160217905550808273ffffffffffffffffffffffffffffffffffffffff168473ffffffffffffffffffffffffffffffffffffffff167fddf252ad1be2c89b69c2b068fc378daa952ba7f163c4a11628f55a4df523b3ef60405160405180910390a4505050565b611fff828260405180602001604052806000815250612588565b5050565b6000600a60009054906101000a900473ffffffffffffffffffffffffffffffffffffffff16905081600a60006101000a81548173ffffffffffffffffffffffffffffffffffffffff021916908373ffffffffffffffffffffffffffffffffffffffff1602179055508173ffffffffffffffffffffffffffffffffffffffff168173ffffffffffffffffffffffffffffffffffffffff167f8be0079c531659141344cd1fd0a4f28419497f9722a3daafe3b4186f6b6457e060405160405180910390a35050565b8173ffffffffffffffffffffffffffffffffffffffff168373ffffffffffffffffffffffffffffffffffffffff161415612138576040517f08c379a000000000000000000000000000000000000000000000000000000000815260040161212f90614280565b60405180910390fd5b80600560008573ffffffffffffffffffffffffffffffffffffffff1673ffffffffffffffffffffffffffffffffffffffff16815260200190815260200160002060008473ffffffffffffffffffffffffffffffffffffffff1673ffffffffffffffffffffffffffffffffffffffff16815260200190815260200160002060006101000a81548160ff0219169083151502179055508173ffffffffffffffffffffffffffffffffffffffff168373ffffffffffffffffffffffffffffffffffffffff167f17307eab39ab6107e8899845ad3d59bd9653f200f220920489ca2b5937696c31836040516122299190612dbe565b60405180910390a3505050565b612241848484611d89565b61224d848484846125e3565b61228c576040517f08c379a000000000000000000000000000000000000000000000000000000000815260040161228390614312565b60405180910390fd5b50505050565b606060405180602001604052806000815250905090565b606060008214156122f1576040518060400160405280600181526020017f30000000000000000000000000000000000000000000000000000000000000008152509050612405565b600082905060005b6000821461232357808061230c90614332565b915050600a8261231c9190613949565b91506122f9565b60008167ffffffffffffffff81111561233f5761233e613046565b5b6040519080825280601f01601f1916602001820160405280156123715781602001600182028036833780820191505090505b5090505b600085146123fe5760018261238a919061397a565b9150600a85612399919061437b565b60306123a59190613cbe565b60f81b8183815181106123bb576123ba613ad2565b5b60200101907effffffffffffffffffffffffffffffffffffffffffffffffffffffffffffff1916908160001a905350600a856123f79190613949565b9450612375565b8093505050505b919050565b60007f01ffc9a7000000000000000000000000000000000000000000000000000000007bffffffffffffffffffffffffffffffffffffffffffffffffffffffff1916827bffffffffffffffffffffffffffffffffffffffffffffffffffffffff1916149050919050565b61247f83838361276b565b600073ffffffffffffffffffffffffffffffffffffffff168373ffffffffffffffffffffffffffffffffffffffff1614156124c2576124bd81612770565b612501565b8173ffffffffffffffffffffffffffffffffffffffff168373ffffffffffffffffffffffffffffffffffffffff1614612500576124ff83826127b9565b5b5b600073ffffffffffffffffffffffffffffffffffffffff168273ffffffffffffffffffffffffffffffffffffffff1614156125445761253f81612926565b612583565b8273ffffffffffffffffffffffffffffffffffffffff168273ffffffffffffffffffffffffffffffffffffffff16146125825761258182826129f7565b5b5b505050565b6125928383612a76565b61259f60008484846125e3565b6125de576040517f08c379a00000000000000000000000000000000000000000000000000000000081526004016125d590614312565b60405180910390fd5b505050565b60006126048473ffffffffffffffffffffffffffffffffffffffff16612c44565b1561275e578373ffffffffffffffffffffffffffffffffffffffff1663150b7a0261262d6119ad565b8786866040518563ffffffff1660e01b815260040161264f9493929190614401565b6020604051808303816000875af192505050801561268b57506040513d601f19601f820116820180604052508101906126889190614462565b60015b61270e573d80600081146126bb576040519150601f19603f3d011682016040523d82523d6000602084013e6126c0565b606091505b50600081511415612706576040517f08c379a00000000000000000000000000000000000000000000000000000000081526004016126fd90614312565b60405180910390fd5b805181602001fd5b63150b7a0260e01b7bffffffffffffffffffffffffffffffffffffffffffffffffffffffff1916817bffffffffffffffffffffffffffffffffffffffffffffffffffffffff191614915050612763565b600190505b949350505050565b505050565b6008805490506009600083815260200190815260200160002081905550600881908060018154018082558091505060019003906000526020600020016000909190919091505550565b600060016127c684610fe1565b6127d0919061397a565b90506000600760008481526020019081526020016000205490508181146128b5576000600660008673ffffffffffffffffffffffffffffffffffffffff1673ffffffffffffffffffffffffffffffffffffffff168152602001908152602001600020600084815260200190815260200160002054905080600660008773ffffffffffffffffffffffffffffffffffffffff1673ffffffffffffffffffffffffffffffffffffffff168152602001908152602001600020600084815260200190815260200160002081905550816007600083815260200190815260200160002081905550505b6007600084815260200190815260200160002060009055600660008573ffffffffffffffffffffffffffffffffffffffff1673ffffffffffffffffffffffffffffffffffffffff16815260200190815260200160002060008381526020019081526020016000206000905550505050565b6000600160088054905061293a919061397a565b905060006009600084815260200190815260200160002054905060006008838154811061296a57612969613ad2565b5b90600052602060002001549050806008838154811061298c5761298b613ad2565b5b9060005260206000200181905550816009600083815260200190815260200160002081905550600960008581526020019081526020016000206000905560088054806129db576129da61448f565b5b6001900381819060005260206000200160009055905550505050565b6000612a0283610fe1565b905081600660008573ffffffffffffffffffffffffffffffffffffffff1673ffffffffffffffffffffffffffffffffffffffff168152602001908152602001600020600083815260200190815260200160002081905550806007600084815260200190815260200160002081905550505050565b600073ffffffffffffffffffffffffffffffffffffffff168273ffffffffffffffffffffffffffffffffffffffff161415612ae6576040517f08c379a0000000000000000000000000000000000000000000000000000000008152600401612add9061450a565b60405180910390fd5b612aef81611941565b15612b2f576040517f08c379a0000000000000000000000000000000000000000000000000000000008152600401612b2690614576565b60405180910390fd5b612b3b60008383612474565b6001600360008473ffffffffffffffffffffffffffffffffffffffff1673ffffffffffffffffffffffffffffffffffffffff1681526020019081526020016000206000828254612b8b9190613cbe565b92505081905550816002600083815260200190815260200160002060006101000a81548173ffffffffffffffffffffffffffffffffffffffff021916908373ffffffffffffffffffffffffffffffffffffffff160217905550808273ffffffffffffffffffffffffffffffffffffffff16600073ffffffffffffffffffffffffffffffffffffffff167fddf252ad1be2c89b69c2b068fc378daa952ba7f163c4a11628f55a4df523b3ef60405160405180910390a45050565b6000808273ffffffffffffffffffffffffffffffffffffffff163b119050919050565b828054612c7390613617565b90600052602060002090601f016020900481019282612c955760008555612cdc565b82601f10612cae57805160ff1916838001178555612cdc565b82800160010185558215612cdc579182015b82811115612cdb578251825591602001919060010190612cc0565b5b509050612ce99190612ced565b5090565b5b80821115612d06576000816000905550600101612cee565b5090565b6000604051905090565b600080fd5b600080fd5b60007fffffffff0000000000000000000000000000000000000000000000000000000082169050919050565b612d5381612d1e565b8114612d5e57600080fd5b50565b600081359050612d7081612d4a565b92915050565b600060208284031215612d8c57612d8b612d14565b5b6000612d9a84828501612d61565b91505092915050565b60008115159050919050565b612db881612da3565b82525050565b6000602082019050612dd36000830184612daf565b92915050565b6000819050919050565b612dec81612dd9565b82525050565b6000602082019050612e076000830184612de3565b92915050565b600081519050919050565b600082825260208201905092915050565b60005b83811015612e47578082015181840152602081019050612e2c565b83811115612e56576000848401525b50505050565b6000601f19601f8301169050919050565b6000612e7882612e0d565b612e828185612e18565b9350612e92818560208601612e29565b612e9b81612e5c565b840191505092915050565b60006020820190508181036000830152612ec08184612e6d565b905092915050565b612ed181612dd9565b8114612edc57600080fd5b50565b600081359050612eee81612ec8565b92915050565b600060208284031215612f0a57612f09612d14565b5b6000612f1884828501612edf565b91505092915050565b600073ffffffffffffffffffffffffffffffffffffffff82169050919050565b6000612f4c82612f21565b9050919050565b612f5c81612f41565b82525050565b6000602082019050612f776000830184612f53565b92915050565b612f8681612f41565b8114612f9157600080fd5b50565b600081359050612fa381612f7d565b92915050565b60008060408385031215612fc057612fbf612d14565b5b6000612fce85828601612f94565b9250506020612fdf85828601612edf565b9150509250929050565b60008060006060848603121561300257613001612d14565b5b600061301086828701612f94565b935050602061302186828701612f94565b925050604061303286828701612edf565b9150509250925092565b600080fd5b600080fd5b7f4e487b7100000000000000000000000000000000000000000000000000000000600052604160045260246000fd5b61307e82612e5c565b810181811067ffffffffffffffff8211171561309d5761309c613046565b5b80604052505050565b60006130b0612d0a565b90506130bc8282613075565b919050565b600067ffffffffffffffff8211156130dc576130db613046565b5b6130e582612e5c565b9050602081019050919050565b82818337600083830152505050565b600061311461310f846130c1565b6130a6565b9050828152602081018484840111156131305761312f613041565b5b61313b8482856130f2565b509392505050565b600082601f8301126131585761315761303c565b5b8135613168848260208601613101565b91505092915050565b6000806040838503121561318857613187612d14565b5b600061319685828601612f94565b925050602083013567ffffffffffffffff8111156131b7576131b6612d19565b5b6131c385828601613143565b9150509250929050565b6000602082840312156131e3576131e2612d14565b5b60006131f184828501612f94565b91505092915050565b600081519050919050565b600082825260208201905092915050565b6000819050602082019050919050565b61322f81612dd9565b82525050565b61323e81612f41565b82525050565b600082825260208201905092915050565b600061326082612e0d565b61326a8185613244565b935061327a818560208601612e29565b61328381612e5c565b840191505092915050565b600060c0830160008301516132a66000860182613226565b5060208301516132b96020860182613235565b5060408301516132cc6040860182613235565b5060608301516132df6060860182613226565b50608083015184820360808601526132f78282613255565b91505060a083015161330c60a0860182613226565b508091505092915050565b6000613323838361328e565b905092915050565b6000602082019050919050565b6000613343826131fa565b61334d8185613205565b93508360208202850161335f85613216565b8060005b8581101561339b578484038952815161337c8582613317565b94506133878361332b565b925060208a01995050600181019050613363565b50829750879550505050505092915050565b600060208201905081810360008301526133c78184613338565b905092915050565b6000602082840312156133e5576133e4612d14565b5b600082013567ffffffffffffffff81111561340357613402612d19565b5b61340f84828501613143565b91505092915050565b61342181612da3565b811461342c57600080fd5b50565b60008135905061343e81613418565b92915050565b6000806040838503121561345b5761345a612d14565b5b600061346985828601612f94565b925050602061347a8582860161342f565b9150509250929050565b600067ffffffffffffffff82111561349f5761349e613046565b5b6134a882612e5c565b9050602081019050919050565b60006134c86134c384613484565b6130a6565b9050828152602081018484840111156134e4576134e3613041565b5b6134ef8482856130f2565b509392505050565b600082601f83011261350c5761350b61303c565b5b813561351c8482602086016134b5565b91505092915050565b6000806000806080858703121561353f5761353e612d14565b5b600061354d87828801612f94565b945050602061355e87828801612f94565b935050604061356f87828801612edf565b925050606085013567ffffffffffffffff8111156135905761358f612d19565b5b61359c878288016134f7565b91505092959194509250565b600080604083850312156135bf576135be612d14565b5b60006135cd85828601612f94565b92505060206135de85828601612f94565b9150509250929050565b7f4e487b7100000000000000000000000000000000000000000000000000000000600052602260045260246000fd5b6000600282049050600182168061362f57607f821691505b60208210811415613643576136426135e8565b5b50919050565b7f4552433732313a20617070726f76656420717565727920666f72206e6f6e657860008201527f697374656e7420746f6b656e0000000000000000000000000000000000000000602082015250565b60006136a5602c83612e18565b91506136b082613649565b604082019050919050565b600060208201905081810360008301526136d481613698565b9050919050565b7f4552433732313a20617070726f76616c20746f2063757272656e74206f776e6560008201527f7200000000000000000000000000000000000000000000000000000000000000602082015250565b6000613737602183612e18565b9150613742826136db565b604082019050919050565b600060208201905081810360008301526137668161372a565b9050919050565b7f4552433732313a20617070726f76652063616c6c6572206973206e6f74206f7760008201527f6e6572206e6f7220617070726f76656420666f7220616c6c0000000000000000602082015250565b60006137c9603883612e18565b91506137d48261376d565b604082019050919050565b600060208201905081810360008301526137f8816137bc565b9050919050565b7f4552433732313a207472616e736665722063616c6c6572206973206e6f74206f60008201527f776e6572206e6f7220617070726f766564000000000000000000000000000000602082015250565b600061385b603183612e18565b9150613866826137ff565b604082019050919050565b6000602082019050818103600083015261388a8161384e565b9050919050565b7f4e487b7100000000000000000000000000000000000000000000000000000000600052601160045260246000fd5b60006138cb82612dd9565b91506138d683612dd9565b9250817fffffffffffffffffffffffffffffffffffffffffffffffffffffffffffffffff048311821515161561390f5761390e613891565b5b828202905092915050565b7f4e487b7100000000000000000000000000000000000000000000000000000000600052601260045260246000fd5b600061395482612dd9565b915061395f83612dd9565b92508261396f5761396e61391a565b5b828204905092915050565b600061398582612dd9565b915061399083612dd9565b9250828210156139a3576139a2613891565b5b828203905092915050565b7f455243373231456e756d657261626c653a206f776e657220696e646578206f7560008201527f74206f6620626f756e6473000000000000000000000000000000000000000000602082015250565b6000613a0a602b83612e18565b9150613a15826139ae565b604082019050919050565b60006020820190508181036000830152613a39816139fd565b9050919050565b7f455243373231456e756d657261626c653a20676c6f62616c20696e646578206f60008201527f7574206f6620626f756e64730000000000000000000000000000000000000000602082015250565b6000613a9c602c83612e18565b9150613aa782613a40565b604082019050919050565b60006020820190508181036000830152613acb81613a8f565b9050919050565b7f4e487b7100000000000000000000000000000000000000000000000000000000600052603260045260246000fd5b7f536f7272792c20616c6c204e4654732068617665206265656e206d696e74656460008201527f2100000000000000000000000000000000000000000000000000000000000000602082015250565b6000613b5d602183612e18565b9150613b6882613b01565b604082019050919050565b60006020820190508181036000830152613b8c81613b50565b9050919050565b7f457468657220746f6f206c6f7720666f72206d696e74696e6721000000000000600082015250565b6000613bc9601a83612e18565b9150613bd482613b93565b602082019050919050565b60006020820190508181036000830152613bf881613bbc565b9050919050565b600081905092915050565b6000613c1582612e0d565b613c1f8185613bff565b9350613c2f818560208601612e29565b80840191505092915050565b6000613c478284613c0a565b915081905092915050565b7f54686973204e465420697320616c7265616479206d696e746564210000000000600082015250565b6000613c88601b83612e18565b9150613c9382613c52565b602082019050919050565b60006020820190508181036000830152613cb781613c7b565b9050919050565b6000613cc982612dd9565b9150613cd483612dd9565b9250827fffffffffffffffffffffffffffffffffffffffffffffffffffffffffffffffff03821115613d0957613d08613891565b5b828201905092915050565b7f4552433732313a206f776e657220717565727920666f72206e6f6e657869737460008201527f656e7420746f6b656e0000000000000000000000000000000000000000000000602082015250565b6000613d70602983612e18565b9150613d7b82613d14565b604082019050919050565b60006020820190508181036000830152613d9f81613d63565b9050919050565b7f4552433732313a2062616c616e636520717565727920666f7220746865207a6560008201527f726f206164647265737300000000000000000000000000000000000000000000602082015250565b6000613e02602a83612e18565b9150613e0d82613da6565b604082019050919050565b60006020820190508181036000830152613e3181613df5565b9050919050565b7f4f776e61626c653a2063616c6c6572206973206e6f7420746865206f776e6572600082015250565b6000613e6e602083612e18565b9150613e7982613e38565b602082019050919050565b60006020820190508181036000830152613e9d81613e61565b9050919050565b7f4552433732314d657461646174613a2055524920717565727920666f72206e6f60008201527f6e6578697374656e7420746f6b656e0000000000000000000000000000000000602082015250565b6000613f00602f83612e18565b9150613f0b82613ea4565b604082019050919050565b60006020820190508181036000830152613f2f81613ef3565b9050919050565b6000613f428285613c0a565b9150613f4e8284613c0a565b91508190509392505050565b7f4f776e61626c653a206e6577206f776e657220697320746865207a65726f206160008201527f6464726573730000000000000000000000000000000000000000000000000000602082015250565b6000613fb6602683612e18565b9150613fc182613f5a565b604082019050919050565b60006020820190508181036000830152613fe581613fa9565b9050919050565b7f4552433732313a206f70657261746f7220717565727920666f72206e6f6e657860008201527f697374656e7420746f6b656e0000000000000000000000000000000000000000602082015250565b6000614048602c83612e18565b915061405382613fec565b604082019050919050565b600060208201905081810360008301526140778161403b565b9050919050565b600081905092915050565b50565b600061409960008361407e565b91506140a482614089565b600082019050919050565b60006140ba8261408c565b9150819050919050565b60006080820190506140d96000830187612de3565b6140e66020830186612de3565b81810360408301526140f88185612e6d565b90506141076060830184612de3565b95945050505050565b7f4552433732313a207472616e73666572206f6620746f6b656e2074686174206960008201527f73206e6f74206f776e0000000000000000000000000000000000000000000000602082015250565b600061416c602983612e18565b915061417782614110565b604082019050919050565b6000602082019050818103600083015261419b8161415f565b9050919050565b7f4552433732313a207472616e7366657220746f20746865207a65726f2061646460008201527f7265737300000000000000000000000000000000000000000000000000000000602082015250565b60006141fe602483612e18565b9150614209826141a2565b604082019050919050565b6000602082019050818103600083015261422d816141f1565b9050919050565b7f4552433732313a20617070726f766520746f2063616c6c657200000000000000600082015250565b600061426a601983612e18565b915061427582614234565b602082019050919050565b600060208201905081810360008301526142998161425d565b9050919050565b7f4552433732313a207472616e7366657220746f206e6f6e20455243373231526560008201527f63656976657220696d706c656d656e7465720000000000000000000000000000602082015250565b60006142fc603283612e18565b9150614307826142a0565b604082019050919050565b6000602082019050818103600083015261432b816142ef565b9050919050565b600061433d82612dd9565b91507fffffffffffffffffffffffffffffffffffffffffffffffffffffffffffffffff8214156143705761436f613891565b5b600182019050919050565b600061438682612dd9565b915061439183612dd9565b9250826143a1576143a061391a565b5b828206905092915050565b600081519050919050565b600082825260208201905092915050565b60006143d3826143ac565b6143dd81856143b7565b93506143ed818560208601612e29565b6143f681612e5c565b840191505092915050565b60006080820190506144166000830187612f53565b6144236020830186612f53565b6144306040830185612de3565b818103606083015261444281846143c8565b905095945050505050565b60008151905061445c81612d4a565b92915050565b60006020828403121561447857614477612d14565b5b60006144868482850161444d565b91505092915050565b7f4e487b7100000000000000000000000000000000000000000000000000000000600052603160045260246000fd5b7f4552433732313a206d696e7420746f20746865207a65726f2061646472657373600082015250565b60006144f4602083612e18565b91506144ff826144be565b602082019050919050565b60006020820190508181036000830152614523816144e7565b9050919050565b7f4552433732313a20746f6b656e20616c7265616479206d696e74656400000000600082015250565b6000614560601c83612e18565b915061456b8261452a565b602082019050919050565b6000602082019050818103600083015261458f81614553565b905091905056fea2646970667358221220ae8afb3ec7fe19dec5bed66f59a903ffe9952532a5350e6c243f433193a6e25564736f6c634300080b0033",
  "immutableReferences": {},
  "source": "// SPDX-License-Identifier: MIT\r\npragma solidity >=0.7.0 <0.9.0;\r\n\r\nimport \"./ERC721.sol\";\r\nimport \"./ERC721Enumerable.sol\";\r\nimport \"@openzeppelin/contracts/access/Ownable.sol\";\r\n\r\ncontract TimelessNFT is ERC721Enumerable, Ownable {\r\n    using Strings for uint256;\r\n\r\n    mapping(string => uint8) existingURIs;\r\n    uint256 private maxSupply = 114;\r\n    address public deployer;\r\n    address public artist;\r\n    uint256 public royalityFee;\r\n    uint256 private supply;\r\n\r\n    event Sale(\r\n        uint256 id,\r\n        address indexed from,\r\n        address indexed to,\r\n        uint256 cost,\r\n        string metadataURI,\r\n        uint256 timestamp\r\n    );\r\n\r\n    struct TransactionStruct {\r\n        uint256 id;\r\n        address from;\r\n        address to;\r\n        uint256 cost;\r\n        string metadataURI;\r\n        uint256 timestamp;\r\n    }\r\n\r\n    TransactionStruct[] transactions;\r\n    TransactionStruct[] minted;\r\n\r\n    constructor(\r\n        string memory _name,\r\n        string memory _symbol,\r\n        uint256 _royalityFee,\r\n        address _deployer,\r\n        address _artist\r\n    ) ERC721(_name, _symbol) {\r\n        royalityFee = _royalityFee;\r\n        deployer = _deployer;\r\n        artist = _artist;\r\n        supply = totalSupply();\r\n    }\r\n\r\n    function isNFTOwned(string memory uri) public view returns (bool) {\r\n        return existingURIs[uri] == 1;\r\n    }\r\n\r\n    function payToMint(address to, string memory metadataURI) public payable {\r\n        require(supply <= maxSupply, \"Sorry, all NFTs have been minted!\");\r\n        require(msg.value > 0 ether, \"Ether too low for minting!\");\r\n        require(existingURIs[metadataURI] != 1, \"This NFT is already minted!\");\r\n\r\n        if (to != owner()) {\r\n            supply += 1;\r\n            existingURIs[metadataURI] = 1;\r\n\r\n            uint256 royality = (msg.value * royalityFee) / 100;\r\n\r\n            _payRoyality(artist, royality);\r\n            _payRoyality(deployer, (msg.value - royality));\r\n\r\n            minted.push(\r\n                TransactionStruct(\r\n                    supply,\r\n                    owner(),\r\n                    to,\r\n                    msg.value,\r\n                    metadataURI,\r\n                    block.timestamp\r\n                )\r\n            );\r\n\r\n            _performSales(\r\n                supply,\r\n                owner(),\r\n                to,\r\n                msg.value,\r\n                metadataURI,\r\n                block.timestamp\r\n            );\r\n        }\r\n\r\n        _safeMint(to, supply);\r\n    }\r\n\r\n    function transferFrom(\r\n        address from,\r\n        address to,\r\n        uint256 tokenId\r\n    ) public payable override {\r\n        require(\r\n            _isApprovedOrOwner(_msgSender(), tokenId),\r\n            \"ERC721: transfer caller is not owner nor approved\"\r\n        );\r\n\r\n        if (msg.value > 0) {\r\n            uint256 royality = (msg.value * royalityFee) / 100;\r\n            _payRoyality(artist, royality);\r\n            _payRoyality(from, (msg.value - royality));\r\n\r\n            _performSales(\r\n                tokenId,\r\n                from,\r\n                to,\r\n                msg.value,\r\n                \"Transfered ownership\",\r\n                block.timestamp\r\n            );\r\n        }\r\n\r\n        _transfer(from, to, tokenId);\r\n    }\r\n\r\n    function getTransactions()\r\n        public\r\n        view\r\n        returns (TransactionStruct[] memory)\r\n    {\r\n        return transactions;\r\n    }\r\n\r\n    function getMintedNFTs() public view returns (TransactionStruct[] memory) {\r\n        return minted;\r\n    }\r\n\r\n    function _performSales(\r\n        uint256 id,\r\n        address from,\r\n        address to,\r\n        uint256 cost,\r\n        string memory metadataURI,\r\n        uint256 timestamp\r\n    ) internal {\r\n        transactions.push(\r\n            TransactionStruct(id, from, to, cost, metadataURI, timestamp)\r\n        );\r\n\r\n        emit Sale(id, from, to, cost, metadataURI, timestamp);\r\n    }\r\n\r\n    function _payRoyality(address stakeholder, uint256 _royalityFee) internal {\r\n        (bool success1, ) = payable(stakeholder).call{value: _royalityFee}(\"\");\r\n        require(success1);\r\n    }\r\n\r\n    function count() public view returns (uint256) {\r\n        return supply;\r\n    }\r\n}\r\n",
  "sourcePath": "C:\\sites\\dapps\\timelessNFT\\src\\contracts\\TimelessNFT.sol",
  "compiler": {
    "name": "solc",
    "version": "0.8.11+commit.d7f03943.Emscripten.clang"
  },
  "schemaVersion": "3.4.4",
  "updatedAt": "2022-04-07T09:53:46.192Z",
  "networkType": "ethereum",
  "devdoc": {
    "kind": "dev",
    "methods": {
      "approve(address,uint256)": {
        "details": "See {IERC721-approve}."
      },
      "balanceOf(address)": {
        "details": "See {IERC721-balanceOf}."
      },
      "getApproved(uint256)": {
        "details": "See {IERC721-getApproved}."
      },
      "isApprovedForAll(address,address)": {
        "details": "See {IERC721-isApprovedForAll}."
      },
      "name()": {
        "details": "See {IERC721Metadata-name}."
      },
      "owner()": {
        "details": "Returns the address of the current owner."
      },
      "ownerOf(uint256)": {
        "details": "See {IERC721-ownerOf}."
      },
      "renounceOwnership()": {
        "details": "Leaves the contract without owner. It will not be possible to call `onlyOwner` functions anymore. Can only be called by the current owner. NOTE: Renouncing ownership will leave the contract without an owner, thereby removing any functionality that is only available to the owner."
      },
      "safeTransferFrom(address,address,uint256)": {
        "details": "See {IERC721-safeTransferFrom}."
      },
      "safeTransferFrom(address,address,uint256,bytes)": {
        "details": "See {IERC721-safeTransferFrom}."
      },
      "setApprovalForAll(address,bool)": {
        "details": "See {IERC721-setApprovalForAll}."
      },
      "supportsInterface(bytes4)": {
        "details": "See {IERC165-supportsInterface}."
      },
      "symbol()": {
        "details": "See {IERC721Metadata-symbol}."
      },
      "tokenByIndex(uint256)": {
        "details": "See {IERC721Enumerable-tokenByIndex}."
      },
      "tokenOfOwnerByIndex(address,uint256)": {
        "details": "See {IERC721Enumerable-tokenOfOwnerByIndex}."
      },
      "tokenURI(uint256)": {
        "details": "See {IERC721Metadata-tokenURI}."
      },
      "totalSupply()": {
        "details": "See {IERC721Enumerable-totalSupply}."
      },
      "transferFrom(address,address,uint256)": {
        "details": "See {IERC721-transferFrom}."
      },
      "transferOwnership(address)": {
        "details": "Transfers ownership of the contract to a new account (`newOwner`). Can only be called by the current owner."
      }
    },
    "version": 1
  },
  "userdoc": {
    "kind": "user",
    "methods": {},
    "version": 1
  }
}